{
	"GestionRisqueContrepartie.sol": {
		"GestionRisqueContrepartie": {
			"abi": [
				{
					"anonymous": false,
					"inputs": [
						{
							"indexed": true,
							"internalType": "address",
							"name": "portefeuille",
							"type": "address"
						},
						{
							"indexed": false,
							"internalType": "uint256",
							"name": "limiteExposition",
							"type": "uint256"
						}
					],
					"name": "ContrepartieAjoutee",
					"type": "event"
				},
				{
					"anonymous": false,
					"inputs": [
						{
							"indexed": true,
							"internalType": "address",
							"name": "portefeuille",
							"type": "address"
						},
						{
							"indexed": false,
							"internalType": "uint256",
							"name": "nouvelleExposition",
							"type": "uint256"
						}
					],
					"name": "ExpositionMiseAJour",
					"type": "event"
				},
				{
					"anonymous": false,
					"inputs": [
						{
							"indexed": true,
							"internalType": "address",
							"name": "portefeuille",
							"type": "address"
						},
						{
							"indexed": false,
							"internalType": "uint256",
							"name": "exposition",
							"type": "uint256"
						}
					],
					"name": "LimiteDepassee",
					"type": "event"
				},
				{
					"inputs": [
						{
							"internalType": "address",
							"name": "_portefeuille",
							"type": "address"
						},
						{
							"internalType": "uint256",
							"name": "_scoreCredit",
							"type": "uint256"
						},
						{
							"internalType": "uint256",
							"name": "_limiteExposition",
							"type": "uint256"
						},
						{
							"internalType": "uint256",
							"name": "_probabiliteDefaut",
							"type": "uint256"
						},
						{
							"internalType": "uint256",
							"name": "_pertesEnCasDeDefaut",
							"type": "uint256"
						},
						{
							"internalType": "uint256",
							"name": "_collaterale",
							"type": "uint256"
						}
					],
					"name": "ajouterContrepartie",
					"outputs": [],
					"stateMutability": "nonpayable",
					"type": "function"
				},
				{
					"inputs": [
						{
							"internalType": "address",
							"name": "_portefeuille",
							"type": "address"
						}
					],
					"name": "calculerPertesAttendues",
					"outputs": [
						{
							"internalType": "uint256",
							"name": "",
							"type": "uint256"
						}
					],
					"stateMutability": "view",
					"type": "function"
				},
				{
					"inputs": [
						{
							"internalType": "address",
							"name": "_portefeuille",
							"type": "address"
						}
					],
					"name": "calculerRatioCouverture",
					"outputs": [
						{
							"internalType": "uint256",
							"name": "",
							"type": "uint256"
						}
					],
					"stateMutability": "view",
					"type": "function"
				},
				{
					"inputs": [
						{
							"internalType": "address",
							"name": "_portefeuille",
							"type": "address"
						}
					],
					"name": "calculerRisque",
					"outputs": [
						{
							"internalType": "uint256",
							"name": "",
							"type": "uint256"
						}
					],
					"stateMutability": "view",
					"type": "function"
				},
				{
					"inputs": [
						{
							"internalType": "address",
							"name": "",
							"type": "address"
						}
					],
					"name": "contreparties",
					"outputs": [
						{
							"internalType": "address",
							"name": "portefeuille",
							"type": "address"
						},
						{
							"internalType": "uint256",
							"name": "scoreCredit",
							"type": "uint256"
						},
						{
							"internalType": "uint256",
							"name": "limiteExposition",
							"type": "uint256"
						},
						{
							"internalType": "uint256",
							"name": "expositionCourante",
							"type": "uint256"
						},
						{
							"internalType": "uint256",
							"name": "collaterale",
							"type": "uint256"
						},
						{
							"internalType": "uint256",
							"name": "probabiliteDefaut",
							"type": "uint256"
						},
						{
							"internalType": "uint256",
							"name": "pertesEnCasDeDefaut",
							"type": "uint256"
						}
					],
					"stateMutability": "view",
					"type": "function"
				},
				{
					"inputs": [
						{
							"internalType": "address",
							"name": "_portefeuille",
							"type": "address"
						},
						{
							"internalType": "uint256",
							"name": "_nouvelleExposition",
							"type": "uint256"
						}
					],
					"name": "mettreAJourExposition",
					"outputs": [],
					"stateMutability": "nonpayable",
					"type": "function"
				}
			],
			"devdoc": {
				"kind": "dev",
				"methods": {},
				"version": 1
			},
			"evm": {
				"assembly": "    /* \"GestionRisqueContrepartie.sol\":60:4384  contract GestionRisqueContrepartie {... */\n  mstore(0x40, 0x80)\n  callvalue\n  dup1\n  iszero\n  tag_1\n  jumpi\n  0x00\n  dup1\n  revert\ntag_1:\n  pop\n  dataSize(sub_0)\n  dup1\n  dataOffset(sub_0)\n  0x00\n  codecopy\n  0x00\n  return\nstop\n\nsub_0: assembly {\n        /* \"GestionRisqueContrepartie.sol\":60:4384  contract GestionRisqueContrepartie {... */\n      mstore(0x40, 0x80)\n      callvalue\n      dup1\n      iszero\n      tag_1\n      jumpi\n      0x00\n      dup1\n      revert\n    tag_1:\n      pop\n      jumpi(tag_2, lt(calldatasize, 0x04))\n      shr(0xe0, calldataload(0x00))\n      dup1\n      0x0aae162e\n      eq\n      tag_3\n      jumpi\n      dup1\n      0x1922701e\n      eq\n      tag_4\n      jumpi\n      dup1\n      0x2d83e6b1\n      eq\n      tag_5\n      jumpi\n      dup1\n      0x760b1eee\n      eq\n      tag_6\n      jumpi\n      dup1\n      0x8e068eb0\n      eq\n      tag_7\n      jumpi\n      dup1\n      0xc8cdac5c\n      eq\n      tag_8\n      jumpi\n    tag_2:\n      0x00\n      dup1\n      revert\n        /* \"GestionRisqueContrepartie.sol\":3306:3845  function calculerRatioCouverture(address _portefeuille) public view returns (uint256) {... */\n    tag_3:\n      tag_9\n      0x04\n      dup1\n      calldatasize\n      sub\n      dup2\n      add\n      swap1\n      tag_10\n      swap2\n      swap1\n      tag_11\n      jump\t// in\n    tag_10:\n      tag_12\n      jump\t// in\n    tag_9:\n      mload(0x40)\n      tag_13\n      swap2\n      swap1\n      tag_14\n      jump\t// in\n    tag_13:\n      mload(0x40)\n      dup1\n      swap2\n      sub\n      swap1\n      return\n        /* \"GestionRisqueContrepartie.sol\":1931:2609  function mettreAJourExposition(address _portefeuille, uint256 _nouvelleExposition) public {... */\n    tag_4:\n      tag_15\n      0x04\n      dup1\n      calldatasize\n      sub\n      dup2\n      add\n      swap1\n      tag_16\n      swap2\n      swap1\n      tag_17\n      jump\t// in\n    tag_16:\n      tag_18\n      jump\t// in\n    tag_15:\n      stop\n        /* \"GestionRisqueContrepartie.sol\":3891:4381  function calculerPertesAttendues(address _portefeuille) public view returns (uint256) {... */\n    tag_5:\n      tag_19\n      0x04\n      dup1\n      calldatasize\n      sub\n      dup2\n      add\n      swap1\n      tag_20\n      swap2\n      swap1\n      tag_11\n      jump\t// in\n    tag_20:\n      tag_21\n      jump\t// in\n    tag_19:\n      mload(0x40)\n      tag_22\n      swap2\n      swap1\n      tag_14\n      jump\t// in\n    tag_22:\n      mload(0x40)\n      dup1\n      swap2\n      sub\n      swap1\n      return\n        /* \"GestionRisqueContrepartie.sol\":497:550  mapping(address => Contrepartie) public contreparties */\n    tag_6:\n      tag_23\n      0x04\n      dup1\n      calldatasize\n      sub\n      dup2\n      add\n      swap1\n      tag_24\n      swap2\n      swap1\n      tag_11\n      jump\t// in\n    tag_24:\n      tag_25\n      jump\t// in\n    tag_23:\n      mload(0x40)\n      tag_26\n      swap8\n      swap7\n      swap6\n      swap5\n      swap4\n      swap3\n      swap2\n      swap1\n      tag_27\n      jump\t// in\n    tag_26:\n      mload(0x40)\n      dup1\n      swap2\n      sub\n      swap1\n      return\n        /* \"GestionRisqueContrepartie.sol\":2666:3258  function calculerRisque(address _portefeuille) public view returns (uint256) {... */\n    tag_7:\n      tag_28\n      0x04\n      dup1\n      calldatasize\n      sub\n      dup2\n      add\n      swap1\n      tag_29\n      swap2\n      swap1\n      tag_11\n      jump\t// in\n    tag_29:\n      tag_30\n      jump\t// in\n    tag_28:\n      mload(0x40)\n      tag_31\n      swap2\n      swap1\n      tag_14\n      jump\t// in\n    tag_31:\n      mload(0x40)\n      dup1\n      swap2\n      sub\n      swap1\n      return\n        /* \"GestionRisqueContrepartie.sol\":935:1868  function ajouterContrepartie(... */\n    tag_8:\n      tag_32\n      0x04\n      dup1\n      calldatasize\n      sub\n      dup2\n      add\n      swap1\n      tag_33\n      swap2\n      swap1\n      tag_34\n      jump\t// in\n    tag_33:\n      tag_35\n      jump\t// in\n    tag_32:\n      stop\n        /* \"GestionRisqueContrepartie.sol\":3306:3845  function calculerRatioCouverture(address _portefeuille) public view returns (uint256) {... */\n    tag_12:\n        /* \"GestionRisqueContrepartie.sol\":3383:3390  uint256 */\n      0x00\n        /* \"GestionRisqueContrepartie.sol\":3403:3435  Contrepartie memory contrepartie */\n      dup1\n        /* \"GestionRisqueContrepartie.sol\":3438:3451  contreparties */\n      0x00\n        /* \"GestionRisqueContrepartie.sol\":3438:3466  contreparties[_portefeuille] */\n      dup1\n        /* \"GestionRisqueContrepartie.sol\":3452:3465  _portefeuille */\n      dup5\n        /* \"GestionRisqueContrepartie.sol\":3438:3466  contreparties[_portefeuille] */\n      0xffffffffffffffffffffffffffffffffffffffff\n      and\n      0xffffffffffffffffffffffffffffffffffffffff\n      and\n      dup2\n      mstore\n      0x20\n      add\n      swap1\n      dup2\n      mstore\n      0x20\n      add\n      0x00\n      keccak256\n        /* \"GestionRisqueContrepartie.sol\":3403:3466  Contrepartie memory contrepartie = contreparties[_portefeuille] */\n      mload(0x40)\n      dup1\n      0xe0\n      add\n      0x40\n      mstore\n      swap1\n      dup2\n      0x00\n      dup3\n      add\n      0x00\n      swap1\n      sload\n      swap1\n      0x0100\n      exp\n      swap1\n      div\n      0xffffffffffffffffffffffffffffffffffffffff\n      and\n      0xffffffffffffffffffffffffffffffffffffffff\n      and\n      0xffffffffffffffffffffffffffffffffffffffff\n      and\n      dup2\n      mstore\n      0x20\n      add\n      0x01\n      dup3\n      add\n      sload\n      dup2\n      mstore\n      0x20\n      add\n      0x02\n      dup3\n      add\n      sload\n      dup2\n      mstore\n      0x20\n      add\n      0x03\n      dup3\n      add\n      sload\n      dup2\n      mstore\n      0x20\n      add\n      0x04\n      dup3\n      add\n      sload\n      dup2\n      mstore\n      0x20\n      add\n      0x05\n      dup3\n      add\n      sload\n      dup2\n      mstore\n      0x20\n      add\n      0x06\n      dup3\n      add\n      sload\n      dup2\n      mstore\n      pop\n      pop\n      swap1\n      pop\n        /* \"GestionRisqueContrepartie.sol\":3522:3523  0 */\n      0x00\n        /* \"GestionRisqueContrepartie.sol\":3485:3524  contrepartie.portefeuille != address(0) */\n      0xffffffffffffffffffffffffffffffffffffffff\n      and\n        /* \"GestionRisqueContrepartie.sol\":3485:3497  contrepartie */\n      dup2\n        /* \"GestionRisqueContrepartie.sol\":3485:3510  contrepartie.portefeuille */\n      0x00\n      add\n      mload\n        /* \"GestionRisqueContrepartie.sol\":3485:3524  contrepartie.portefeuille != address(0) */\n      0xffffffffffffffffffffffffffffffffffffffff\n      and\n      sub\n        /* \"GestionRisqueContrepartie.sol\":3477:3553  require(contrepartie.portefeuille != address(0), \"Contrepartie non trouvee\") */\n      tag_37\n      jumpi\n      mload(0x40)\n      0x08c379a000000000000000000000000000000000000000000000000000000000\n      dup2\n      mstore\n      0x04\n      add\n      tag_38\n      swap1\n      tag_39\n      jump\t// in\n    tag_38:\n      mload(0x40)\n      dup1\n      swap2\n      sub\n      swap1\n      revert\n    tag_37:\n        /* \"GestionRisqueContrepartie.sol\":3605:3606  0 */\n      0x00\n        /* \"GestionRisqueContrepartie.sol\":3570:3582  contrepartie */\n      dup2\n        /* \"GestionRisqueContrepartie.sol\":3570:3601  contrepartie.expositionCourante */\n      0x60\n      add\n      mload\n        /* \"GestionRisqueContrepartie.sol\":3570:3606  contrepartie.expositionCourante == 0 */\n      sub\n        /* \"GestionRisqueContrepartie.sol\":3566:3676  if (contrepartie.expositionCourante == 0) {... */\n      tag_40\n      jumpi\n        /* \"GestionRisqueContrepartie.sol\":3630:3631  0 */\n      0x00\n        /* \"GestionRisqueContrepartie.sol\":3623:3631  return 0 */\n      swap2\n      pop\n      pop\n      jump(tag_36)\n        /* \"GestionRisqueContrepartie.sol\":3566:3676  if (contrepartie.expositionCourante == 0) {... */\n    tag_40:\n        /* \"GestionRisqueContrepartie.sol\":3806:3818  contrepartie */\n      dup1\n        /* \"GestionRisqueContrepartie.sol\":3806:3837  contrepartie.expositionCourante */\n      0x60\n      add\n      mload\n        /* \"GestionRisqueContrepartie.sol\":3799:3802  100 */\n      0x64\n        /* \"GestionRisqueContrepartie.sol\":3772:3784  contrepartie */\n      dup3\n        /* \"GestionRisqueContrepartie.sol\":3772:3796  contrepartie.collaterale */\n      0x80\n      add\n      mload\n        /* \"GestionRisqueContrepartie.sol\":3772:3802  contrepartie.collaterale * 100 */\n      tag_41\n      swap2\n      swap1\n      tag_42\n      jump\t// in\n    tag_41:\n        /* \"GestionRisqueContrepartie.sol\":3771:3837  (contrepartie.collaterale * 100) / contrepartie.expositionCourante */\n      tag_43\n      swap2\n      swap1\n      tag_44\n      jump\t// in\n    tag_43:\n        /* \"GestionRisqueContrepartie.sol\":3764:3837  return (contrepartie.collaterale * 100) / contrepartie.expositionCourante */\n      swap2\n      pop\n      pop\n        /* \"GestionRisqueContrepartie.sol\":3306:3845  function calculerRatioCouverture(address _portefeuille) public view returns (uint256) {... */\n    tag_36:\n      swap2\n      swap1\n      pop\n      jump\t// out\n        /* \"GestionRisqueContrepartie.sol\":1931:2609  function mettreAJourExposition(address _portefeuille, uint256 _nouvelleExposition) public {... */\n    tag_18:\n        /* \"GestionRisqueContrepartie.sol\":2032:2065  Contrepartie storage contrepartie */\n      0x00\n        /* \"GestionRisqueContrepartie.sol\":2068:2081  contreparties */\n      dup1\n        /* \"GestionRisqueContrepartie.sol\":2068:2096  contreparties[_portefeuille] */\n      0x00\n        /* \"GestionRisqueContrepartie.sol\":2082:2095  _portefeuille */\n      dup5\n        /* \"GestionRisqueContrepartie.sol\":2068:2096  contreparties[_portefeuille] */\n      0xffffffffffffffffffffffffffffffffffffffff\n      and\n      0xffffffffffffffffffffffffffffffffffffffff\n      and\n      dup2\n      mstore\n      0x20\n      add\n      swap1\n      dup2\n      mstore\n      0x20\n      add\n      0x00\n      keccak256\n        /* \"GestionRisqueContrepartie.sol\":2032:2096  Contrepartie storage contrepartie = contreparties[_portefeuille] */\n      swap1\n      pop\n        /* \"GestionRisqueContrepartie.sol\":2152:2153  0 */\n      0x00\n        /* \"GestionRisqueContrepartie.sol\":2115:2154  contrepartie.portefeuille != address(0) */\n      0xffffffffffffffffffffffffffffffffffffffff\n      and\n        /* \"GestionRisqueContrepartie.sol\":2115:2127  contrepartie */\n      dup2\n        /* \"GestionRisqueContrepartie.sol\":2115:2140  contrepartie.portefeuille */\n      0x00\n      add\n      0x00\n      swap1\n      sload\n      swap1\n      0x0100\n      exp\n      swap1\n      div\n      0xffffffffffffffffffffffffffffffffffffffff\n      and\n        /* \"GestionRisqueContrepartie.sol\":2115:2154  contrepartie.portefeuille != address(0) */\n      0xffffffffffffffffffffffffffffffffffffffff\n      and\n      sub\n        /* \"GestionRisqueContrepartie.sol\":2107:2183  require(contrepartie.portefeuille != address(0), \"Contrepartie non trouvee\") */\n      tag_46\n      jumpi\n      mload(0x40)\n      0x08c379a000000000000000000000000000000000000000000000000000000000\n      dup2\n      mstore\n      0x04\n      add\n      tag_47\n      swap1\n      tag_39\n      jump\t// in\n    tag_47:\n      mload(0x40)\n      dup1\n      swap2\n      sub\n      swap1\n      revert\n    tag_46:\n        /* \"GestionRisqueContrepartie.sol\":2289:2301  contrepartie */\n      dup1\n        /* \"GestionRisqueContrepartie.sol\":2289:2318  contrepartie.limiteExposition */\n      0x02\n      add\n      sload\n        /* \"GestionRisqueContrepartie.sol\":2267:2286  _nouvelleExposition */\n      dup3\n        /* \"GestionRisqueContrepartie.sol\":2267:2318  _nouvelleExposition > contrepartie.limiteExposition */\n      gt\n        /* \"GestionRisqueContrepartie.sol\":2263:2465  if (_nouvelleExposition > contrepartie.limiteExposition) {... */\n      iszero\n      tag_48\n      jumpi\n        /* \"GestionRisqueContrepartie.sol\":2355:2368  _portefeuille */\n      dup3\n        /* \"GestionRisqueContrepartie.sol\":2340:2390  LimiteDepassee(_portefeuille, _nouvelleExposition) */\n      0xffffffffffffffffffffffffffffffffffffffff\n      and\n      0x74b737e83b985a0afa446389d70cccab99d200a0a63101114130a2a2dfbba912\n        /* \"GestionRisqueContrepartie.sol\":2370:2389  _nouvelleExposition */\n      dup4\n        /* \"GestionRisqueContrepartie.sol\":2340:2390  LimiteDepassee(_portefeuille, _nouvelleExposition) */\n      mload(0x40)\n      tag_49\n      swap2\n      swap1\n      tag_14\n      jump\t// in\n    tag_49:\n      mload(0x40)\n      dup1\n      swap2\n      sub\n      swap1\n      log2\n        /* \"GestionRisqueContrepartie.sol\":2405:2453  revert(\"Exposition depasse la limite autorisee\") */\n      mload(0x40)\n      0x08c379a000000000000000000000000000000000000000000000000000000000\n      dup2\n      mstore\n      0x04\n      add\n      tag_50\n      swap1\n      tag_51\n      jump\t// in\n    tag_50:\n      mload(0x40)\n      dup1\n      swap2\n      sub\n      swap1\n      revert\n        /* \"GestionRisqueContrepartie.sol\":2263:2465  if (_nouvelleExposition > contrepartie.limiteExposition) {... */\n    tag_48:\n        /* \"GestionRisqueContrepartie.sol\":2511:2530  _nouvelleExposition */\n      dup2\n        /* \"GestionRisqueContrepartie.sol\":2477:2489  contrepartie */\n      dup2\n        /* \"GestionRisqueContrepartie.sol\":2477:2508  contrepartie.expositionCourante */\n      0x03\n      add\n        /* \"GestionRisqueContrepartie.sol\":2477:2530  contrepartie.expositionCourante = _nouvelleExposition */\n      dup2\n      swap1\n      sstore\n      pop\n        /* \"GestionRisqueContrepartie.sol\":2566:2579  _portefeuille */\n      dup3\n        /* \"GestionRisqueContrepartie.sol\":2546:2601  ExpositionMiseAJour(_portefeuille, _nouvelleExposition) */\n      0xffffffffffffffffffffffffffffffffffffffff\n      and\n      0xa6b582f9fa77f5eb299250871d3b51c8ff3655dd554da3f9abb294b3e92f8e1f\n        /* \"GestionRisqueContrepartie.sol\":2581:2600  _nouvelleExposition */\n      dup4\n        /* \"GestionRisqueContrepartie.sol\":2546:2601  ExpositionMiseAJour(_portefeuille, _nouvelleExposition) */\n      mload(0x40)\n      tag_52\n      swap2\n      swap1\n      tag_14\n      jump\t// in\n    tag_52:\n      mload(0x40)\n      dup1\n      swap2\n      sub\n      swap1\n      log2\n        /* \"GestionRisqueContrepartie.sol\":2021:2609  {... */\n      pop\n        /* \"GestionRisqueContrepartie.sol\":1931:2609  function mettreAJourExposition(address _portefeuille, uint256 _nouvelleExposition) public {... */\n      pop\n      pop\n      jump\t// out\n        /* \"GestionRisqueContrepartie.sol\":3891:4381  function calculerPertesAttendues(address _portefeuille) public view returns (uint256) {... */\n    tag_21:\n        /* \"GestionRisqueContrepartie.sol\":3968:3975  uint256 */\n      0x00\n        /* \"GestionRisqueContrepartie.sol\":3988:4020  Contrepartie memory contrepartie */\n      dup1\n        /* \"GestionRisqueContrepartie.sol\":4023:4036  contreparties */\n      0x00\n        /* \"GestionRisqueContrepartie.sol\":4023:4051  contreparties[_portefeuille] */\n      dup1\n        /* \"GestionRisqueContrepartie.sol\":4037:4050  _portefeuille */\n      dup5\n        /* \"GestionRisqueContrepartie.sol\":4023:4051  contreparties[_portefeuille] */\n      0xffffffffffffffffffffffffffffffffffffffff\n      and\n      0xffffffffffffffffffffffffffffffffffffffff\n      and\n      dup2\n      mstore\n      0x20\n      add\n      swap1\n      dup2\n      mstore\n      0x20\n      add\n      0x00\n      keccak256\n        /* \"GestionRisqueContrepartie.sol\":3988:4051  Contrepartie memory contrepartie = contreparties[_portefeuille] */\n      mload(0x40)\n      dup1\n      0xe0\n      add\n      0x40\n      mstore\n      swap1\n      dup2\n      0x00\n      dup3\n      add\n      0x00\n      swap1\n      sload\n      swap1\n      0x0100\n      exp\n      swap1\n      div\n      0xffffffffffffffffffffffffffffffffffffffff\n      and\n      0xffffffffffffffffffffffffffffffffffffffff\n      and\n      0xffffffffffffffffffffffffffffffffffffffff\n      and\n      dup2\n      mstore\n      0x20\n      add\n      0x01\n      dup3\n      add\n      sload\n      dup2\n      mstore\n      0x20\n      add\n      0x02\n      dup3\n      add\n      sload\n      dup2\n      mstore\n      0x20\n      add\n      0x03\n      dup3\n      add\n      sload\n      dup2\n      mstore\n      0x20\n      add\n      0x04\n      dup3\n      add\n      sload\n      dup2\n      mstore\n      0x20\n      add\n      0x05\n      dup3\n      add\n      sload\n      dup2\n      mstore\n      0x20\n      add\n      0x06\n      dup3\n      add\n      sload\n      dup2\n      mstore\n      pop\n      pop\n      swap1\n      pop\n        /* \"GestionRisqueContrepartie.sol\":4107:4108  0 */\n      0x00\n        /* \"GestionRisqueContrepartie.sol\":4070:4109  contrepartie.portefeuille != address(0) */\n      0xffffffffffffffffffffffffffffffffffffffff\n      and\n        /* \"GestionRisqueContrepartie.sol\":4070:4082  contrepartie */\n      dup2\n        /* \"GestionRisqueContrepartie.sol\":4070:4095  contrepartie.portefeuille */\n      0x00\n      add\n      mload\n        /* \"GestionRisqueContrepartie.sol\":4070:4109  contrepartie.portefeuille != address(0) */\n      0xffffffffffffffffffffffffffffffffffffffff\n      and\n      sub\n        /* \"GestionRisqueContrepartie.sol\":4062:4138  require(contrepartie.portefeuille != address(0), \"Contrepartie non trouvee\") */\n      tag_54\n      jumpi\n      mload(0x40)\n      0x08c379a000000000000000000000000000000000000000000000000000000000\n      dup2\n      mstore\n      0x04\n      add\n      tag_55\n      swap1\n      tag_39\n      jump\t// in\n    tag_55:\n      mload(0x40)\n      dup1\n      swap2\n      sub\n      swap1\n      revert\n    tag_54:\n        /* \"GestionRisqueContrepartie.sol\":4368:4373  10000 */\n      0x2710\n        /* \"GestionRisqueContrepartie.sol\":4332:4344  contrepartie */\n      dup2\n        /* \"GestionRisqueContrepartie.sol\":4332:4364  contrepartie.pertesEnCasDeDefaut */\n      0xc0\n      add\n      mload\n        /* \"GestionRisqueContrepartie.sol\":4299:4311  contrepartie */\n      dup3\n        /* \"GestionRisqueContrepartie.sol\":4299:4329  contrepartie.probabiliteDefaut */\n      0xa0\n      add\n      mload\n        /* \"GestionRisqueContrepartie.sol\":4265:4277  contrepartie */\n      dup4\n        /* \"GestionRisqueContrepartie.sol\":4265:4296  contrepartie.expositionCourante */\n      0x60\n      add\n      mload\n        /* \"GestionRisqueContrepartie.sol\":4265:4329  contrepartie.expositionCourante * contrepartie.probabiliteDefaut */\n      tag_56\n      swap2\n      swap1\n      tag_42\n      jump\t// in\n    tag_56:\n        /* \"GestionRisqueContrepartie.sol\":4265:4364  contrepartie.expositionCourante * contrepartie.probabiliteDefaut * contrepartie.pertesEnCasDeDefaut */\n      tag_57\n      swap2\n      swap1\n      tag_42\n      jump\t// in\n    tag_57:\n        /* \"GestionRisqueContrepartie.sol\":4264:4373  (contrepartie.expositionCourante * contrepartie.probabiliteDefaut * contrepartie.pertesEnCasDeDefaut) / 10000 */\n      tag_58\n      swap2\n      swap1\n      tag_44\n      jump\t// in\n    tag_58:\n        /* \"GestionRisqueContrepartie.sol\":4257:4373  return (contrepartie.expositionCourante * contrepartie.probabiliteDefaut * contrepartie.pertesEnCasDeDefaut) / 10000 */\n      swap2\n      pop\n      pop\n        /* \"GestionRisqueContrepartie.sol\":3891:4381  function calculerPertesAttendues(address _portefeuille) public view returns (uint256) {... */\n      swap2\n      swap1\n      pop\n      jump\t// out\n        /* \"GestionRisqueContrepartie.sol\":497:550  mapping(address => Contrepartie) public contreparties */\n    tag_25:\n      mstore(0x20, 0x00)\n      dup1\n      0x00\n      mstore\n      keccak256(0x00, 0x40)\n      0x00\n      swap2\n      pop\n      swap1\n      pop\n      dup1\n      0x00\n      add\n      0x00\n      swap1\n      sload\n      swap1\n      0x0100\n      exp\n      swap1\n      div\n      0xffffffffffffffffffffffffffffffffffffffff\n      and\n      swap1\n      dup1\n      0x01\n      add\n      sload\n      swap1\n      dup1\n      0x02\n      add\n      sload\n      swap1\n      dup1\n      0x03\n      add\n      sload\n      swap1\n      dup1\n      0x04\n      add\n      sload\n      swap1\n      dup1\n      0x05\n      add\n      sload\n      swap1\n      dup1\n      0x06\n      add\n      sload\n      swap1\n      pop\n      dup8\n      jump\t// out\n        /* \"GestionRisqueContrepartie.sol\":2666:3258  function calculerRisque(address _portefeuille) public view returns (uint256) {... */\n    tag_30:\n        /* \"GestionRisqueContrepartie.sol\":2734:2741  uint256 */\n      0x00\n        /* \"GestionRisqueContrepartie.sol\":2754:2786  Contrepartie memory contrepartie */\n      dup1\n        /* \"GestionRisqueContrepartie.sol\":2789:2802  contreparties */\n      0x00\n        /* \"GestionRisqueContrepartie.sol\":2789:2817  contreparties[_portefeuille] */\n      dup1\n        /* \"GestionRisqueContrepartie.sol\":2803:2816  _portefeuille */\n      dup5\n        /* \"GestionRisqueContrepartie.sol\":2789:2817  contreparties[_portefeuille] */\n      0xffffffffffffffffffffffffffffffffffffffff\n      and\n      0xffffffffffffffffffffffffffffffffffffffff\n      and\n      dup2\n      mstore\n      0x20\n      add\n      swap1\n      dup2\n      mstore\n      0x20\n      add\n      0x00\n      keccak256\n        /* \"GestionRisqueContrepartie.sol\":2754:2817  Contrepartie memory contrepartie = contreparties[_portefeuille] */\n      mload(0x40)\n      dup1\n      0xe0\n      add\n      0x40\n      mstore\n      swap1\n      dup2\n      0x00\n      dup3\n      add\n      0x00\n      swap1\n      sload\n      swap1\n      0x0100\n      exp\n      swap1\n      div\n      0xffffffffffffffffffffffffffffffffffffffff\n      and\n      0xffffffffffffffffffffffffffffffffffffffff\n      and\n      0xffffffffffffffffffffffffffffffffffffffff\n      and\n      dup2\n      mstore\n      0x20\n      add\n      0x01\n      dup3\n      add\n      sload\n      dup2\n      mstore\n      0x20\n      add\n      0x02\n      dup3\n      add\n      sload\n      dup2\n      mstore\n      0x20\n      add\n      0x03\n      dup3\n      add\n      sload\n      dup2\n      mstore\n      0x20\n      add\n      0x04\n      dup3\n      add\n      sload\n      dup2\n      mstore\n      0x20\n      add\n      0x05\n      dup3\n      add\n      sload\n      dup2\n      mstore\n      0x20\n      add\n      0x06\n      dup3\n      add\n      sload\n      dup2\n      mstore\n      pop\n      pop\n      swap1\n      pop\n        /* \"GestionRisqueContrepartie.sol\":2873:2874  0 */\n      0x00\n        /* \"GestionRisqueContrepartie.sol\":2836:2875  contrepartie.portefeuille != address(0) */\n      0xffffffffffffffffffffffffffffffffffffffff\n      and\n        /* \"GestionRisqueContrepartie.sol\":2836:2848  contrepartie */\n      dup2\n        /* \"GestionRisqueContrepartie.sol\":2836:2861  contrepartie.portefeuille */\n      0x00\n      add\n      mload\n        /* \"GestionRisqueContrepartie.sol\":2836:2875  contrepartie.portefeuille != address(0) */\n      0xffffffffffffffffffffffffffffffffffffffff\n      and\n      sub\n        /* \"GestionRisqueContrepartie.sol\":2828:2904  require(contrepartie.portefeuille != address(0), \"Contrepartie non trouvee\") */\n      tag_60\n      jumpi\n      mload(0x40)\n      0x08c379a000000000000000000000000000000000000000000000000000000000\n      dup2\n      mstore\n      0x04\n      add\n      tag_61\n      swap1\n      tag_39\n      jump\t// in\n    tag_61:\n      mload(0x40)\n      dup1\n      swap2\n      sub\n      swap1\n      revert\n    tag_60:\n        /* \"GestionRisqueContrepartie.sol\":3060:3061  0 */\n      0x00\n        /* \"GestionRisqueContrepartie.sol\":3027:3039  contrepartie */\n      dup2\n        /* \"GestionRisqueContrepartie.sol\":3027:3056  contrepartie.limiteExposition */\n      0x40\n      add\n      mload\n        /* \"GestionRisqueContrepartie.sol\":3027:3061  contrepartie.limiteExposition == 0 */\n      sub\n        /* \"GestionRisqueContrepartie.sol\":3023:3131  if (contrepartie.limiteExposition == 0) {... */\n      tag_62\n      jumpi\n        /* \"GestionRisqueContrepartie.sol\":3085:3086  0 */\n      0x00\n        /* \"GestionRisqueContrepartie.sol\":3078:3086  return 0 */\n      swap2\n      pop\n      pop\n      jump(tag_59)\n        /* \"GestionRisqueContrepartie.sol\":3023:3131  if (contrepartie.limiteExposition == 0) {... */\n    tag_62:\n        /* \"GestionRisqueContrepartie.sol\":3225:3237  contrepartie */\n      dup1\n        /* \"GestionRisqueContrepartie.sol\":3225:3249  contrepartie.scoreCredit */\n      0x20\n      add\n      mload\n        /* \"GestionRisqueContrepartie.sol\":3193:3205  contrepartie */\n      dup2\n        /* \"GestionRisqueContrepartie.sol\":3193:3222  contrepartie.limiteExposition */\n      0x40\n      add\n      mload\n        /* \"GestionRisqueContrepartie.sol\":3193:3249  contrepartie.limiteExposition * contrepartie.scoreCredit */\n      tag_63\n      swap2\n      swap1\n      tag_42\n      jump\t// in\n    tag_63:\n        /* \"GestionRisqueContrepartie.sol\":3183:3188  10000 */\n      0x2710\n        /* \"GestionRisqueContrepartie.sol\":3149:3161  contrepartie */\n      dup3\n        /* \"GestionRisqueContrepartie.sol\":3149:3180  contrepartie.expositionCourante */\n      0x60\n      add\n      mload\n        /* \"GestionRisqueContrepartie.sol\":3149:3188  contrepartie.expositionCourante * 10000 */\n      tag_64\n      swap2\n      swap1\n      tag_42\n      jump\t// in\n    tag_64:\n        /* \"GestionRisqueContrepartie.sol\":3148:3250  (contrepartie.expositionCourante * 10000) / (contrepartie.limiteExposition * contrepartie.scoreCredit) */\n      tag_65\n      swap2\n      swap1\n      tag_44\n      jump\t// in\n    tag_65:\n        /* \"GestionRisqueContrepartie.sol\":3141:3250  return (contrepartie.expositionCourante * 10000) / (contrepartie.limiteExposition * contrepartie.scoreCredit) */\n      swap2\n      pop\n      pop\n        /* \"GestionRisqueContrepartie.sol\":2666:3258  function calculerRisque(address _portefeuille) public view returns (uint256) {... */\n    tag_59:\n      swap2\n      swap1\n      pop\n      jump\t// out\n        /* \"GestionRisqueContrepartie.sol\":935:1868  function ajouterContrepartie(... */\n    tag_35:\n        /* \"GestionRisqueContrepartie.sol\":1256:1257  0 */\n      0x00\n        /* \"GestionRisqueContrepartie.sol\":1203:1258  contreparties[_portefeuille].portefeuille == address(0) */\n      0xffffffffffffffffffffffffffffffffffffffff\n      and\n        /* \"GestionRisqueContrepartie.sol\":1203:1216  contreparties */\n      0x00\n        /* \"GestionRisqueContrepartie.sol\":1203:1231  contreparties[_portefeuille] */\n      dup1\n        /* \"GestionRisqueContrepartie.sol\":1217:1230  _portefeuille */\n      dup9\n        /* \"GestionRisqueContrepartie.sol\":1203:1231  contreparties[_portefeuille] */\n      0xffffffffffffffffffffffffffffffffffffffff\n      and\n      0xffffffffffffffffffffffffffffffffffffffff\n      and\n      dup2\n      mstore\n      0x20\n      add\n      swap1\n      dup2\n      mstore\n      0x20\n      add\n      0x00\n      keccak256\n        /* \"GestionRisqueContrepartie.sol\":1203:1244  contreparties[_portefeuille].portefeuille */\n      0x00\n      add\n      0x00\n      swap1\n      sload\n      swap1\n      0x0100\n      exp\n      swap1\n      div\n      0xffffffffffffffffffffffffffffffffffffffff\n      and\n        /* \"GestionRisqueContrepartie.sol\":1203:1258  contreparties[_portefeuille].portefeuille == address(0) */\n      0xffffffffffffffffffffffffffffffffffffffff\n      and\n      eq\n        /* \"GestionRisqueContrepartie.sol\":1195:1292  require(contreparties[_portefeuille].portefeuille == address(0), \"Contrepartie deja enregistree\") */\n      tag_67\n      jumpi\n      mload(0x40)\n      0x08c379a000000000000000000000000000000000000000000000000000000000\n      dup2\n      mstore\n      0x04\n      add\n      tag_68\n      swap1\n      tag_69\n      jump\t// in\n    tag_68:\n      mload(0x40)\n      dup1\n      swap2\n      sub\n      swap1\n      revert\n    tag_67:\n        /* \"GestionRisqueContrepartie.sol\":1326:1327  0 */\n      0x00\n        /* \"GestionRisqueContrepartie.sol\":1311:1323  _scoreCredit */\n      dup6\n        /* \"GestionRisqueContrepartie.sol\":1311:1327  _scoreCredit > 0 */\n      gt\n        /* \"GestionRisqueContrepartie.sol\":1311:1352  _scoreCredit > 0 && _limiteExposition > 0 */\n      dup1\n      iszero\n      tag_70\n      jumpi\n      pop\n        /* \"GestionRisqueContrepartie.sol\":1351:1352  0 */\n      0x00\n        /* \"GestionRisqueContrepartie.sol\":1331:1348  _limiteExposition */\n      dup5\n        /* \"GestionRisqueContrepartie.sol\":1331:1352  _limiteExposition > 0 */\n      gt\n        /* \"GestionRisqueContrepartie.sol\":1311:1352  _scoreCredit > 0 && _limiteExposition > 0 */\n    tag_70:\n        /* \"GestionRisqueContrepartie.sol\":1303:1404  require(_scoreCredit > 0 && _limiteExposition > 0, \"Score de credit et limite doivent etre positifs\") */\n      tag_71\n      jumpi\n      mload(0x40)\n      0x08c379a000000000000000000000000000000000000000000000000000000000\n      dup2\n      mstore\n      0x04\n      add\n      tag_72\n      swap1\n      tag_73\n      jump\t// in\n    tag_72:\n      mload(0x40)\n      dup1\n      swap2\n      sub\n      swap1\n      revert\n    tag_71:\n        /* \"GestionRisqueContrepartie.sol\":1448:1789  Contrepartie({... */\n      mload(0x40)\n      dup1\n      0xe0\n      add\n      0x40\n      mstore\n      dup1\n        /* \"GestionRisqueContrepartie.sol\":1490:1503  _portefeuille */\n      dup8\n        /* \"GestionRisqueContrepartie.sol\":1448:1789  Contrepartie({... */\n      0xffffffffffffffffffffffffffffffffffffffff\n      and\n      dup2\n      mstore\n      0x20\n      add\n        /* \"GestionRisqueContrepartie.sol\":1531:1543  _scoreCredit */\n      dup7\n        /* \"GestionRisqueContrepartie.sol\":1448:1789  Contrepartie({... */\n      dup2\n      mstore\n      0x20\n      add\n        /* \"GestionRisqueContrepartie.sol\":1576:1593  _limiteExposition */\n      dup6\n        /* \"GestionRisqueContrepartie.sol\":1448:1789  Contrepartie({... */\n      dup2\n      mstore\n      0x20\n      add\n        /* \"GestionRisqueContrepartie.sol\":1628:1629  0 */\n      0x00\n        /* \"GestionRisqueContrepartie.sol\":1448:1789  Contrepartie({... */\n      dup2\n      mstore\n      0x20\n      add\n        /* \"GestionRisqueContrepartie.sol\":1657:1669  _collaterale */\n      dup3\n        /* \"GestionRisqueContrepartie.sol\":1448:1789  Contrepartie({... */\n      dup2\n      mstore\n      0x20\n      add\n        /* \"GestionRisqueContrepartie.sol\":1703:1721  _probabiliteDefaut */\n      dup5\n        /* \"GestionRisqueContrepartie.sol\":1448:1789  Contrepartie({... */\n      dup2\n      mstore\n      0x20\n      add\n        /* \"GestionRisqueContrepartie.sol\":1757:1777  _pertesEnCasDeDefaut */\n      dup4\n        /* \"GestionRisqueContrepartie.sol\":1448:1789  Contrepartie({... */\n      dup2\n      mstore\n      pop\n        /* \"GestionRisqueContrepartie.sol\":1417:1430  contreparties */\n      0x00\n        /* \"GestionRisqueContrepartie.sol\":1417:1445  contreparties[_portefeuille] */\n      dup1\n        /* \"GestionRisqueContrepartie.sol\":1431:1444  _portefeuille */\n      dup9\n        /* \"GestionRisqueContrepartie.sol\":1417:1445  contreparties[_portefeuille] */\n      0xffffffffffffffffffffffffffffffffffffffff\n      and\n      0xffffffffffffffffffffffffffffffffffffffff\n      and\n      dup2\n      mstore\n      0x20\n      add\n      swap1\n      dup2\n      mstore\n      0x20\n      add\n      0x00\n      keccak256\n        /* \"GestionRisqueContrepartie.sol\":1417:1789  contreparties[_portefeuille] = Contrepartie({... */\n      0x00\n      dup3\n      add\n      mload\n      dup2\n      0x00\n      add\n      exp(0x0100, 0x00)\n      dup2\n      sload\n      dup2\n      0xffffffffffffffffffffffffffffffffffffffff\n      mul\n      not\n      and\n      swap1\n      dup4\n      0xffffffffffffffffffffffffffffffffffffffff\n      and\n      mul\n      or\n      swap1\n      sstore\n      pop\n      0x20\n      dup3\n      add\n      mload\n      dup2\n      0x01\n      add\n      sstore\n      0x40\n      dup3\n      add\n      mload\n      dup2\n      0x02\n      add\n      sstore\n      0x60\n      dup3\n      add\n      mload\n      dup2\n      0x03\n      add\n      sstore\n      0x80\n      dup3\n      add\n      mload\n      dup2\n      0x04\n      add\n      sstore\n      0xa0\n      dup3\n      add\n      mload\n      dup2\n      0x05\n      add\n      sstore\n      0xc0\n      dup3\n      add\n      mload\n      dup2\n      0x06\n      add\n      sstore\n      swap1\n      pop\n      pop\n        /* \"GestionRisqueContrepartie.sol\":1827:1840  _portefeuille */\n      dup6\n        /* \"GestionRisqueContrepartie.sol\":1807:1860  ContrepartieAjoutee(_portefeuille, _limiteExposition) */\n      0xffffffffffffffffffffffffffffffffffffffff\n      and\n      0x747a12c5b34abe212a3a26b67b9a8edf3ceb6bd68207c9f6c11a5161432e1614\n        /* \"GestionRisqueContrepartie.sol\":1842:1859  _limiteExposition */\n      dup6\n        /* \"GestionRisqueContrepartie.sol\":1807:1860  ContrepartieAjoutee(_portefeuille, _limiteExposition) */\n      mload(0x40)\n      tag_74\n      swap2\n      swap1\n      tag_14\n      jump\t// in\n    tag_74:\n      mload(0x40)\n      dup1\n      swap2\n      sub\n      swap1\n      log2\n        /* \"GestionRisqueContrepartie.sol\":935:1868  function ajouterContrepartie(... */\n      pop\n      pop\n      pop\n      pop\n      pop\n      pop\n      jump\t// out\n        /* \"#utility.yul\":88:205   */\n    tag_76:\n        /* \"#utility.yul\":197:198   */\n      0x00\n        /* \"#utility.yul\":194:195   */\n      dup1\n        /* \"#utility.yul\":187:199   */\n      revert\n        /* \"#utility.yul\":334:460   */\n    tag_78:\n        /* \"#utility.yul\":371:378   */\n      0x00\n        /* \"#utility.yul\":411:453   */\n      0xffffffffffffffffffffffffffffffffffffffff\n        /* \"#utility.yul\":404:409   */\n      dup3\n        /* \"#utility.yul\":400:454   */\n      and\n        /* \"#utility.yul\":389:454   */\n      swap1\n      pop\n        /* \"#utility.yul\":334:460   */\n      swap2\n      swap1\n      pop\n      jump\t// out\n        /* \"#utility.yul\":466:562   */\n    tag_79:\n        /* \"#utility.yul\":503:510   */\n      0x00\n        /* \"#utility.yul\":532:556   */\n      tag_104\n        /* \"#utility.yul\":550:555   */\n      dup3\n        /* \"#utility.yul\":532:556   */\n      tag_78\n      jump\t// in\n    tag_104:\n        /* \"#utility.yul\":521:556   */\n      swap1\n      pop\n        /* \"#utility.yul\":466:562   */\n      swap2\n      swap1\n      pop\n      jump\t// out\n        /* \"#utility.yul\":568:690   */\n    tag_80:\n        /* \"#utility.yul\":641:665   */\n      tag_106\n        /* \"#utility.yul\":659:664   */\n      dup2\n        /* \"#utility.yul\":641:665   */\n      tag_79\n      jump\t// in\n    tag_106:\n        /* \"#utility.yul\":634:639   */\n      dup2\n        /* \"#utility.yul\":631:666   */\n      eq\n        /* \"#utility.yul\":621:684   */\n      tag_107\n      jumpi\n        /* \"#utility.yul\":680:681   */\n      0x00\n        /* \"#utility.yul\":677:678   */\n      dup1\n        /* \"#utility.yul\":670:682   */\n      revert\n        /* \"#utility.yul\":621:684   */\n    tag_107:\n        /* \"#utility.yul\":568:690   */\n      pop\n      jump\t// out\n        /* \"#utility.yul\":696:835   */\n    tag_81:\n        /* \"#utility.yul\":742:747   */\n      0x00\n        /* \"#utility.yul\":780:786   */\n      dup2\n        /* \"#utility.yul\":767:787   */\n      calldataload\n        /* \"#utility.yul\":758:787   */\n      swap1\n      pop\n        /* \"#utility.yul\":796:829   */\n      tag_109\n        /* \"#utility.yul\":823:828   */\n      dup2\n        /* \"#utility.yul\":796:829   */\n      tag_80\n      jump\t// in\n    tag_109:\n        /* \"#utility.yul\":696:835   */\n      swap3\n      swap2\n      pop\n      pop\n      jump\t// out\n        /* \"#utility.yul\":841:1170   */\n    tag_11:\n        /* \"#utility.yul\":900:906   */\n      0x00\n        /* \"#utility.yul\":949:951   */\n      0x20\n        /* \"#utility.yul\":937:946   */\n      dup3\n        /* \"#utility.yul\":928:935   */\n      dup5\n        /* \"#utility.yul\":924:947   */\n      sub\n        /* \"#utility.yul\":920:952   */\n      slt\n        /* \"#utility.yul\":917:1036   */\n      iszero\n      tag_111\n      jumpi\n        /* \"#utility.yul\":955:1034   */\n      tag_112\n      tag_76\n      jump\t// in\n    tag_112:\n        /* \"#utility.yul\":917:1036   */\n    tag_111:\n        /* \"#utility.yul\":1075:1076   */\n      0x00\n        /* \"#utility.yul\":1100:1153   */\n      tag_113\n        /* \"#utility.yul\":1145:1152   */\n      dup5\n        /* \"#utility.yul\":1136:1142   */\n      dup3\n        /* \"#utility.yul\":1125:1134   */\n      dup6\n        /* \"#utility.yul\":1121:1143   */\n      add\n        /* \"#utility.yul\":1100:1153   */\n      tag_81\n      jump\t// in\n    tag_113:\n        /* \"#utility.yul\":1090:1153   */\n      swap2\n      pop\n        /* \"#utility.yul\":1046:1163   */\n      pop\n        /* \"#utility.yul\":841:1170   */\n      swap3\n      swap2\n      pop\n      pop\n      jump\t// out\n        /* \"#utility.yul\":1176:1253   */\n    tag_82:\n        /* \"#utility.yul\":1213:1220   */\n      0x00\n        /* \"#utility.yul\":1242:1247   */\n      dup2\n        /* \"#utility.yul\":1231:1247   */\n      swap1\n      pop\n        /* \"#utility.yul\":1176:1253   */\n      swap2\n      swap1\n      pop\n      jump\t// out\n        /* \"#utility.yul\":1259:1377   */\n    tag_83:\n        /* \"#utility.yul\":1346:1370   */\n      tag_116\n        /* \"#utility.yul\":1364:1369   */\n      dup2\n        /* \"#utility.yul\":1346:1370   */\n      tag_82\n      jump\t// in\n    tag_116:\n        /* \"#utility.yul\":1341:1344   */\n      dup3\n        /* \"#utility.yul\":1334:1371   */\n      mstore\n        /* \"#utility.yul\":1259:1377   */\n      pop\n      pop\n      jump\t// out\n        /* \"#utility.yul\":1383:1605   */\n    tag_14:\n        /* \"#utility.yul\":1476:1480   */\n      0x00\n        /* \"#utility.yul\":1514:1516   */\n      0x20\n        /* \"#utility.yul\":1503:1512   */\n      dup3\n        /* \"#utility.yul\":1499:1517   */\n      add\n        /* \"#utility.yul\":1491:1517   */\n      swap1\n      pop\n        /* \"#utility.yul\":1527:1598   */\n      tag_118\n        /* \"#utility.yul\":1595:1596   */\n      0x00\n        /* \"#utility.yul\":1584:1593   */\n      dup4\n        /* \"#utility.yul\":1580:1597   */\n      add\n        /* \"#utility.yul\":1571:1577   */\n      dup5\n        /* \"#utility.yul\":1527:1598   */\n      tag_83\n      jump\t// in\n    tag_118:\n        /* \"#utility.yul\":1383:1605   */\n      swap3\n      swap2\n      pop\n      pop\n      jump\t// out\n        /* \"#utility.yul\":1611:1733   */\n    tag_84:\n        /* \"#utility.yul\":1684:1708   */\n      tag_120\n        /* \"#utility.yul\":1702:1707   */\n      dup2\n        /* \"#utility.yul\":1684:1708   */\n      tag_82\n      jump\t// in\n    tag_120:\n        /* \"#utility.yul\":1677:1682   */\n      dup2\n        /* \"#utility.yul\":1674:1709   */\n      eq\n        /* \"#utility.yul\":1664:1727   */\n      tag_121\n      jumpi\n        /* \"#utility.yul\":1723:1724   */\n      0x00\n        /* \"#utility.yul\":1720:1721   */\n      dup1\n        /* \"#utility.yul\":1713:1725   */\n      revert\n        /* \"#utility.yul\":1664:1727   */\n    tag_121:\n        /* \"#utility.yul\":1611:1733   */\n      pop\n      jump\t// out\n        /* \"#utility.yul\":1739:1878   */\n    tag_85:\n        /* \"#utility.yul\":1785:1790   */\n      0x00\n        /* \"#utility.yul\":1823:1829   */\n      dup2\n        /* \"#utility.yul\":1810:1830   */\n      calldataload\n        /* \"#utility.yul\":1801:1830   */\n      swap1\n      pop\n        /* \"#utility.yul\":1839:1872   */\n      tag_123\n        /* \"#utility.yul\":1866:1871   */\n      dup2\n        /* \"#utility.yul\":1839:1872   */\n      tag_84\n      jump\t// in\n    tag_123:\n        /* \"#utility.yul\":1739:1878   */\n      swap3\n      swap2\n      pop\n      pop\n      jump\t// out\n        /* \"#utility.yul\":1884:2358   */\n    tag_17:\n        /* \"#utility.yul\":1952:1958   */\n      0x00\n        /* \"#utility.yul\":1960:1966   */\n      dup1\n        /* \"#utility.yul\":2009:2011   */\n      0x40\n        /* \"#utility.yul\":1997:2006   */\n      dup4\n        /* \"#utility.yul\":1988:1995   */\n      dup6\n        /* \"#utility.yul\":1984:2007   */\n      sub\n        /* \"#utility.yul\":1980:2012   */\n      slt\n        /* \"#utility.yul\":1977:2096   */\n      iszero\n      tag_125\n      jumpi\n        /* \"#utility.yul\":2015:2094   */\n      tag_126\n      tag_76\n      jump\t// in\n    tag_126:\n        /* \"#utility.yul\":1977:2096   */\n    tag_125:\n        /* \"#utility.yul\":2135:2136   */\n      0x00\n        /* \"#utility.yul\":2160:2213   */\n      tag_127\n        /* \"#utility.yul\":2205:2212   */\n      dup6\n        /* \"#utility.yul\":2196:2202   */\n      dup3\n        /* \"#utility.yul\":2185:2194   */\n      dup7\n        /* \"#utility.yul\":2181:2203   */\n      add\n        /* \"#utility.yul\":2160:2213   */\n      tag_81\n      jump\t// in\n    tag_127:\n        /* \"#utility.yul\":2150:2213   */\n      swap3\n      pop\n        /* \"#utility.yul\":2106:2223   */\n      pop\n        /* \"#utility.yul\":2262:2264   */\n      0x20\n        /* \"#utility.yul\":2288:2341   */\n      tag_128\n        /* \"#utility.yul\":2333:2340   */\n      dup6\n        /* \"#utility.yul\":2324:2330   */\n      dup3\n        /* \"#utility.yul\":2313:2322   */\n      dup7\n        /* \"#utility.yul\":2309:2331   */\n      add\n        /* \"#utility.yul\":2288:2341   */\n      tag_85\n      jump\t// in\n    tag_128:\n        /* \"#utility.yul\":2278:2341   */\n      swap2\n      pop\n        /* \"#utility.yul\":2233:2351   */\n      pop\n        /* \"#utility.yul\":1884:2358   */\n      swap3\n      pop\n      swap3\n      swap1\n      pop\n      jump\t// out\n        /* \"#utility.yul\":2364:2482   */\n    tag_86:\n        /* \"#utility.yul\":2451:2475   */\n      tag_130\n        /* \"#utility.yul\":2469:2474   */\n      dup2\n        /* \"#utility.yul\":2451:2475   */\n      tag_79\n      jump\t// in\n    tag_130:\n        /* \"#utility.yul\":2446:2449   */\n      dup3\n        /* \"#utility.yul\":2439:2476   */\n      mstore\n        /* \"#utility.yul\":2364:2482   */\n      pop\n      pop\n      jump\t// out\n        /* \"#utility.yul\":2488:3374   */\n    tag_27:\n        /* \"#utility.yul\":2749:2753   */\n      0x00\n        /* \"#utility.yul\":2787:2790   */\n      0xe0\n        /* \"#utility.yul\":2776:2785   */\n      dup3\n        /* \"#utility.yul\":2772:2791   */\n      add\n        /* \"#utility.yul\":2764:2791   */\n      swap1\n      pop\n        /* \"#utility.yul\":2801:2872   */\n      tag_132\n        /* \"#utility.yul\":2869:2870   */\n      0x00\n        /* \"#utility.yul\":2858:2867   */\n      dup4\n        /* \"#utility.yul\":2854:2871   */\n      add\n        /* \"#utility.yul\":2845:2851   */\n      dup11\n        /* \"#utility.yul\":2801:2872   */\n      tag_86\n      jump\t// in\n    tag_132:\n        /* \"#utility.yul\":2882:2954   */\n      tag_133\n        /* \"#utility.yul\":2950:2952   */\n      0x20\n        /* \"#utility.yul\":2939:2948   */\n      dup4\n        /* \"#utility.yul\":2935:2953   */\n      add\n        /* \"#utility.yul\":2926:2932   */\n      dup10\n        /* \"#utility.yul\":2882:2954   */\n      tag_83\n      jump\t// in\n    tag_133:\n        /* \"#utility.yul\":2964:3036   */\n      tag_134\n        /* \"#utility.yul\":3032:3034   */\n      0x40\n        /* \"#utility.yul\":3021:3030   */\n      dup4\n        /* \"#utility.yul\":3017:3035   */\n      add\n        /* \"#utility.yul\":3008:3014   */\n      dup9\n        /* \"#utility.yul\":2964:3036   */\n      tag_83\n      jump\t// in\n    tag_134:\n        /* \"#utility.yul\":3046:3118   */\n      tag_135\n        /* \"#utility.yul\":3114:3116   */\n      0x60\n        /* \"#utility.yul\":3103:3112   */\n      dup4\n        /* \"#utility.yul\":3099:3117   */\n      add\n        /* \"#utility.yul\":3090:3096   */\n      dup8\n        /* \"#utility.yul\":3046:3118   */\n      tag_83\n      jump\t// in\n    tag_135:\n        /* \"#utility.yul\":3128:3201   */\n      tag_136\n        /* \"#utility.yul\":3196:3199   */\n      0x80\n        /* \"#utility.yul\":3185:3194   */\n      dup4\n        /* \"#utility.yul\":3181:3200   */\n      add\n        /* \"#utility.yul\":3172:3178   */\n      dup7\n        /* \"#utility.yul\":3128:3201   */\n      tag_83\n      jump\t// in\n    tag_136:\n        /* \"#utility.yul\":3211:3284   */\n      tag_137\n        /* \"#utility.yul\":3279:3282   */\n      0xa0\n        /* \"#utility.yul\":3268:3277   */\n      dup4\n        /* \"#utility.yul\":3264:3283   */\n      add\n        /* \"#utility.yul\":3255:3261   */\n      dup6\n        /* \"#utility.yul\":3211:3284   */\n      tag_83\n      jump\t// in\n    tag_137:\n        /* \"#utility.yul\":3294:3367   */\n      tag_138\n        /* \"#utility.yul\":3362:3365   */\n      0xc0\n        /* \"#utility.yul\":3351:3360   */\n      dup4\n        /* \"#utility.yul\":3347:3366   */\n      add\n        /* \"#utility.yul\":3338:3344   */\n      dup5\n        /* \"#utility.yul\":3294:3367   */\n      tag_83\n      jump\t// in\n    tag_138:\n        /* \"#utility.yul\":2488:3374   */\n      swap9\n      swap8\n      pop\n      pop\n      pop\n      pop\n      pop\n      pop\n      pop\n      pop\n      jump\t// out\n        /* \"#utility.yul\":3380:4437   */\n    tag_34:\n        /* \"#utility.yul\":3484:3490   */\n      0x00\n        /* \"#utility.yul\":3492:3498   */\n      dup1\n        /* \"#utility.yul\":3500:3506   */\n      0x00\n        /* \"#utility.yul\":3508:3514   */\n      dup1\n        /* \"#utility.yul\":3516:3522   */\n      0x00\n        /* \"#utility.yul\":3524:3530   */\n      dup1\n        /* \"#utility.yul\":3573:3576   */\n      0xc0\n        /* \"#utility.yul\":3561:3570   */\n      dup8\n        /* \"#utility.yul\":3552:3559   */\n      dup10\n        /* \"#utility.yul\":3548:3571   */\n      sub\n        /* \"#utility.yul\":3544:3577   */\n      slt\n        /* \"#utility.yul\":3541:3661   */\n      iszero\n      tag_140\n      jumpi\n        /* \"#utility.yul\":3580:3659   */\n      tag_141\n      tag_76\n      jump\t// in\n    tag_141:\n        /* \"#utility.yul\":3541:3661   */\n    tag_140:\n        /* \"#utility.yul\":3700:3701   */\n      0x00\n        /* \"#utility.yul\":3725:3778   */\n      tag_142\n        /* \"#utility.yul\":3770:3777   */\n      dup10\n        /* \"#utility.yul\":3761:3767   */\n      dup3\n        /* \"#utility.yul\":3750:3759   */\n      dup11\n        /* \"#utility.yul\":3746:3768   */\n      add\n        /* \"#utility.yul\":3725:3778   */\n      tag_81\n      jump\t// in\n    tag_142:\n        /* \"#utility.yul\":3715:3778   */\n      swap7\n      pop\n        /* \"#utility.yul\":3671:3788   */\n      pop\n        /* \"#utility.yul\":3827:3829   */\n      0x20\n        /* \"#utility.yul\":3853:3906   */\n      tag_143\n        /* \"#utility.yul\":3898:3905   */\n      dup10\n        /* \"#utility.yul\":3889:3895   */\n      dup3\n        /* \"#utility.yul\":3878:3887   */\n      dup11\n        /* \"#utility.yul\":3874:3896   */\n      add\n        /* \"#utility.yul\":3853:3906   */\n      tag_85\n      jump\t// in\n    tag_143:\n        /* \"#utility.yul\":3843:3906   */\n      swap6\n      pop\n        /* \"#utility.yul\":3798:3916   */\n      pop\n        /* \"#utility.yul\":3955:3957   */\n      0x40\n        /* \"#utility.yul\":3981:4034   */\n      tag_144\n        /* \"#utility.yul\":4026:4033   */\n      dup10\n        /* \"#utility.yul\":4017:4023   */\n      dup3\n        /* \"#utility.yul\":4006:4015   */\n      dup11\n        /* \"#utility.yul\":4002:4024   */\n      add\n        /* \"#utility.yul\":3981:4034   */\n      tag_85\n      jump\t// in\n    tag_144:\n        /* \"#utility.yul\":3971:4034   */\n      swap5\n      pop\n        /* \"#utility.yul\":3926:4044   */\n      pop\n        /* \"#utility.yul\":4083:4085   */\n      0x60\n        /* \"#utility.yul\":4109:4162   */\n      tag_145\n        /* \"#utility.yul\":4154:4161   */\n      dup10\n        /* \"#utility.yul\":4145:4151   */\n      dup3\n        /* \"#utility.yul\":4134:4143   */\n      dup11\n        /* \"#utility.yul\":4130:4152   */\n      add\n        /* \"#utility.yul\":4109:4162   */\n      tag_85\n      jump\t// in\n    tag_145:\n        /* \"#utility.yul\":4099:4162   */\n      swap4\n      pop\n        /* \"#utility.yul\":4054:4172   */\n      pop\n        /* \"#utility.yul\":4211:4214   */\n      0x80\n        /* \"#utility.yul\":4238:4291   */\n      tag_146\n        /* \"#utility.yul\":4283:4290   */\n      dup10\n        /* \"#utility.yul\":4274:4280   */\n      dup3\n        /* \"#utility.yul\":4263:4272   */\n      dup11\n        /* \"#utility.yul\":4259:4281   */\n      add\n        /* \"#utility.yul\":4238:4291   */\n      tag_85\n      jump\t// in\n    tag_146:\n        /* \"#utility.yul\":4228:4291   */\n      swap3\n      pop\n        /* \"#utility.yul\":4182:4301   */\n      pop\n        /* \"#utility.yul\":4340:4343   */\n      0xa0\n        /* \"#utility.yul\":4367:4420   */\n      tag_147\n        /* \"#utility.yul\":4412:4419   */\n      dup10\n        /* \"#utility.yul\":4403:4409   */\n      dup3\n        /* \"#utility.yul\":4392:4401   */\n      dup11\n        /* \"#utility.yul\":4388:4410   */\n      add\n        /* \"#utility.yul\":4367:4420   */\n      tag_85\n      jump\t// in\n    tag_147:\n        /* \"#utility.yul\":4357:4420   */\n      swap2\n      pop\n        /* \"#utility.yul\":4311:4430   */\n      pop\n        /* \"#utility.yul\":3380:4437   */\n      swap3\n      swap6\n      pop\n      swap3\n      swap6\n      pop\n      swap3\n      swap6\n      jump\t// out\n        /* \"#utility.yul\":4443:4612   */\n    tag_87:\n        /* \"#utility.yul\":4527:4538   */\n      0x00\n        /* \"#utility.yul\":4561:4567   */\n      dup3\n        /* \"#utility.yul\":4556:4559   */\n      dup3\n        /* \"#utility.yul\":4549:4568   */\n      mstore\n        /* \"#utility.yul\":4601:4605   */\n      0x20\n        /* \"#utility.yul\":4596:4599   */\n      dup3\n        /* \"#utility.yul\":4592:4606   */\n      add\n        /* \"#utility.yul\":4577:4606   */\n      swap1\n      pop\n        /* \"#utility.yul\":4443:4612   */\n      swap3\n      swap2\n      pop\n      pop\n      jump\t// out\n        /* \"#utility.yul\":4618:4792   */\n    tag_88:\n        /* \"#utility.yul\":4758:4784   */\n      0x436f6e747265706172746965206e6f6e2074726f757665650000000000000000\n        /* \"#utility.yul\":4754:4755   */\n      0x00\n        /* \"#utility.yul\":4746:4752   */\n      dup3\n        /* \"#utility.yul\":4742:4756   */\n      add\n        /* \"#utility.yul\":4735:4785   */\n      mstore\n        /* \"#utility.yul\":4618:4792   */\n      pop\n      jump\t// out\n        /* \"#utility.yul\":4798:5164   */\n    tag_89:\n        /* \"#utility.yul\":4940:4943   */\n      0x00\n        /* \"#utility.yul\":4961:5028   */\n      tag_151\n        /* \"#utility.yul\":5025:5027   */\n      0x18\n        /* \"#utility.yul\":5020:5023   */\n      dup4\n        /* \"#utility.yul\":4961:5028   */\n      tag_87\n      jump\t// in\n    tag_151:\n        /* \"#utility.yul\":4954:5028   */\n      swap2\n      pop\n        /* \"#utility.yul\":5037:5130   */\n      tag_152\n        /* \"#utility.yul\":5126:5129   */\n      dup3\n        /* \"#utility.yul\":5037:5130   */\n      tag_88\n      jump\t// in\n    tag_152:\n        /* \"#utility.yul\":5155:5157   */\n      0x20\n        /* \"#utility.yul\":5150:5153   */\n      dup3\n        /* \"#utility.yul\":5146:5158   */\n      add\n        /* \"#utility.yul\":5139:5158   */\n      swap1\n      pop\n        /* \"#utility.yul\":4798:5164   */\n      swap2\n      swap1\n      pop\n      jump\t// out\n        /* \"#utility.yul\":5170:5589   */\n    tag_39:\n        /* \"#utility.yul\":5336:5340   */\n      0x00\n        /* \"#utility.yul\":5374:5376   */\n      0x20\n        /* \"#utility.yul\":5363:5372   */\n      dup3\n        /* \"#utility.yul\":5359:5377   */\n      add\n        /* \"#utility.yul\":5351:5377   */\n      swap1\n      pop\n        /* \"#utility.yul\":5423:5432   */\n      dup2\n        /* \"#utility.yul\":5417:5421   */\n      dup2\n        /* \"#utility.yul\":5413:5433   */\n      sub\n        /* \"#utility.yul\":5409:5410   */\n      0x00\n        /* \"#utility.yul\":5398:5407   */\n      dup4\n        /* \"#utility.yul\":5394:5411   */\n      add\n        /* \"#utility.yul\":5387:5434   */\n      mstore\n        /* \"#utility.yul\":5451:5582   */\n      tag_154\n        /* \"#utility.yul\":5577:5581   */\n      dup2\n        /* \"#utility.yul\":5451:5582   */\n      tag_89\n      jump\t// in\n    tag_154:\n        /* \"#utility.yul\":5443:5582   */\n      swap1\n      pop\n        /* \"#utility.yul\":5170:5589   */\n      swap2\n      swap1\n      pop\n      jump\t// out\n        /* \"#utility.yul\":5595:5775   */\n    tag_90:\n        /* \"#utility.yul\":5643:5720   */\n      0x4e487b7100000000000000000000000000000000000000000000000000000000\n        /* \"#utility.yul\":5640:5641   */\n      0x00\n        /* \"#utility.yul\":5633:5721   */\n      mstore\n        /* \"#utility.yul\":5740:5744   */\n      0x11\n        /* \"#utility.yul\":5737:5738   */\n      0x04\n        /* \"#utility.yul\":5730:5745   */\n      mstore\n        /* \"#utility.yul\":5764:5768   */\n      0x24\n        /* \"#utility.yul\":5761:5762   */\n      0x00\n        /* \"#utility.yul\":5754:5769   */\n      revert\n        /* \"#utility.yul\":5781:6191   */\n    tag_42:\n        /* \"#utility.yul\":5821:5828   */\n      0x00\n        /* \"#utility.yul\":5844:5864   */\n      tag_157\n        /* \"#utility.yul\":5862:5863   */\n      dup3\n        /* \"#utility.yul\":5844:5864   */\n      tag_82\n      jump\t// in\n    tag_157:\n        /* \"#utility.yul\":5839:5864   */\n      swap2\n      pop\n        /* \"#utility.yul\":5878:5898   */\n      tag_158\n        /* \"#utility.yul\":5896:5897   */\n      dup4\n        /* \"#utility.yul\":5878:5898   */\n      tag_82\n      jump\t// in\n    tag_158:\n        /* \"#utility.yul\":5873:5898   */\n      swap3\n      pop\n        /* \"#utility.yul\":5933:5934   */\n      dup3\n        /* \"#utility.yul\":5930:5931   */\n      dup3\n        /* \"#utility.yul\":5926:5935   */\n      mul\n        /* \"#utility.yul\":5955:5985   */\n      tag_159\n        /* \"#utility.yul\":5973:5984   */\n      dup2\n        /* \"#utility.yul\":5955:5985   */\n      tag_82\n      jump\t// in\n    tag_159:\n        /* \"#utility.yul\":5944:5985   */\n      swap2\n      pop\n        /* \"#utility.yul\":6134:6135   */\n      dup3\n        /* \"#utility.yul\":6125:6132   */\n      dup3\n        /* \"#utility.yul\":6121:6136   */\n      div\n        /* \"#utility.yul\":6118:6119   */\n      dup5\n        /* \"#utility.yul\":6115:6137   */\n      eq\n        /* \"#utility.yul\":6095:6096   */\n      dup4\n        /* \"#utility.yul\":6088:6097   */\n      iszero\n        /* \"#utility.yul\":6068:6151   */\n      or\n        /* \"#utility.yul\":6045:6184   */\n      tag_160\n      jumpi\n        /* \"#utility.yul\":6164:6182   */\n      tag_161\n      tag_90\n      jump\t// in\n    tag_161:\n        /* \"#utility.yul\":6045:6184   */\n    tag_160:\n        /* \"#utility.yul\":5829:6191   */\n      pop\n        /* \"#utility.yul\":5781:6191   */\n      swap3\n      swap2\n      pop\n      pop\n      jump\t// out\n        /* \"#utility.yul\":6197:6377   */\n    tag_91:\n        /* \"#utility.yul\":6245:6322   */\n      0x4e487b7100000000000000000000000000000000000000000000000000000000\n        /* \"#utility.yul\":6242:6243   */\n      0x00\n        /* \"#utility.yul\":6235:6323   */\n      mstore\n        /* \"#utility.yul\":6342:6346   */\n      0x12\n        /* \"#utility.yul\":6339:6340   */\n      0x04\n        /* \"#utility.yul\":6332:6347   */\n      mstore\n        /* \"#utility.yul\":6366:6370   */\n      0x24\n        /* \"#utility.yul\":6363:6364   */\n      0x00\n        /* \"#utility.yul\":6356:6371   */\n      revert\n        /* \"#utility.yul\":6383:6568   */\n    tag_44:\n        /* \"#utility.yul\":6423:6424   */\n      0x00\n        /* \"#utility.yul\":6440:6460   */\n      tag_164\n        /* \"#utility.yul\":6458:6459   */\n      dup3\n        /* \"#utility.yul\":6440:6460   */\n      tag_82\n      jump\t// in\n    tag_164:\n        /* \"#utility.yul\":6435:6460   */\n      swap2\n      pop\n        /* \"#utility.yul\":6474:6494   */\n      tag_165\n        /* \"#utility.yul\":6492:6493   */\n      dup4\n        /* \"#utility.yul\":6474:6494   */\n      tag_82\n      jump\t// in\n    tag_165:\n        /* \"#utility.yul\":6469:6494   */\n      swap3\n      pop\n        /* \"#utility.yul\":6513:6514   */\n      dup3\n        /* \"#utility.yul\":6503:6538   */\n      tag_166\n      jumpi\n        /* \"#utility.yul\":6518:6536   */\n      tag_167\n      tag_91\n      jump\t// in\n    tag_167:\n        /* \"#utility.yul\":6503:6538   */\n    tag_166:\n        /* \"#utility.yul\":6560:6561   */\n      dup3\n        /* \"#utility.yul\":6557:6558   */\n      dup3\n        /* \"#utility.yul\":6553:6562   */\n      div\n        /* \"#utility.yul\":6548:6562   */\n      swap1\n      pop\n        /* \"#utility.yul\":6383:6568   */\n      swap3\n      swap2\n      pop\n      pop\n      jump\t// out\n        /* \"#utility.yul\":6574:6799   */\n    tag_92:\n        /* \"#utility.yul\":6714:6748   */\n      0x4578706f736974696f6e2064657061737365206c61206c696d69746520617574\n        /* \"#utility.yul\":6710:6711   */\n      0x00\n        /* \"#utility.yul\":6702:6708   */\n      dup3\n        /* \"#utility.yul\":6698:6712   */\n      add\n        /* \"#utility.yul\":6691:6749   */\n      mstore\n        /* \"#utility.yul\":6783:6791   */\n      0x6f72697365650000000000000000000000000000000000000000000000000000\n        /* \"#utility.yul\":6778:6780   */\n      0x20\n        /* \"#utility.yul\":6770:6776   */\n      dup3\n        /* \"#utility.yul\":6766:6781   */\n      add\n        /* \"#utility.yul\":6759:6792   */\n      mstore\n        /* \"#utility.yul\":6574:6799   */\n      pop\n      jump\t// out\n        /* \"#utility.yul\":6805:7171   */\n    tag_93:\n        /* \"#utility.yul\":6947:6950   */\n      0x00\n        /* \"#utility.yul\":6968:7035   */\n      tag_170\n        /* \"#utility.yul\":7032:7034   */\n      0x26\n        /* \"#utility.yul\":7027:7030   */\n      dup4\n        /* \"#utility.yul\":6968:7035   */\n      tag_87\n      jump\t// in\n    tag_170:\n        /* \"#utility.yul\":6961:7035   */\n      swap2\n      pop\n        /* \"#utility.yul\":7044:7137   */\n      tag_171\n        /* \"#utility.yul\":7133:7136   */\n      dup3\n        /* \"#utility.yul\":7044:7137   */\n      tag_92\n      jump\t// in\n    tag_171:\n        /* \"#utility.yul\":7162:7164   */\n      0x40\n        /* \"#utility.yul\":7157:7160   */\n      dup3\n        /* \"#utility.yul\":7153:7165   */\n      add\n        /* \"#utility.yul\":7146:7165   */\n      swap1\n      pop\n        /* \"#utility.yul\":6805:7171   */\n      swap2\n      swap1\n      pop\n      jump\t// out\n        /* \"#utility.yul\":7177:7596   */\n    tag_51:\n        /* \"#utility.yul\":7343:7347   */\n      0x00\n        /* \"#utility.yul\":7381:7383   */\n      0x20\n        /* \"#utility.yul\":7370:7379   */\n      dup3\n        /* \"#utility.yul\":7366:7384   */\n      add\n        /* \"#utility.yul\":7358:7384   */\n      swap1\n      pop\n        /* \"#utility.yul\":7430:7439   */\n      dup2\n        /* \"#utility.yul\":7424:7428   */\n      dup2\n        /* \"#utility.yul\":7420:7440   */\n      sub\n        /* \"#utility.yul\":7416:7417   */\n      0x00\n        /* \"#utility.yul\":7405:7414   */\n      dup4\n        /* \"#utility.yul\":7401:7418   */\n      add\n        /* \"#utility.yul\":7394:7441   */\n      mstore\n        /* \"#utility.yul\":7458:7589   */\n      tag_173\n        /* \"#utility.yul\":7584:7588   */\n      dup2\n        /* \"#utility.yul\":7458:7589   */\n      tag_93\n      jump\t// in\n    tag_173:\n        /* \"#utility.yul\":7450:7589   */\n      swap1\n      pop\n        /* \"#utility.yul\":7177:7596   */\n      swap2\n      swap1\n      pop\n      jump\t// out\n        /* \"#utility.yul\":7602:7781   */\n    tag_94:\n        /* \"#utility.yul\":7742:7773   */\n      0x436f6e7472657061727469652064656a6120656e726567697374726565000000\n        /* \"#utility.yul\":7738:7739   */\n      0x00\n        /* \"#utility.yul\":7730:7736   */\n      dup3\n        /* \"#utility.yul\":7726:7740   */\n      add\n        /* \"#utility.yul\":7719:7774   */\n      mstore\n        /* \"#utility.yul\":7602:7781   */\n      pop\n      jump\t// out\n        /* \"#utility.yul\":7787:8153   */\n    tag_95:\n        /* \"#utility.yul\":7929:7932   */\n      0x00\n        /* \"#utility.yul\":7950:8017   */\n      tag_176\n        /* \"#utility.yul\":8014:8016   */\n      0x1d\n        /* \"#utility.yul\":8009:8012   */\n      dup4\n        /* \"#utility.yul\":7950:8017   */\n      tag_87\n      jump\t// in\n    tag_176:\n        /* \"#utility.yul\":7943:8017   */\n      swap2\n      pop\n        /* \"#utility.yul\":8026:8119   */\n      tag_177\n        /* \"#utility.yul\":8115:8118   */\n      dup3\n        /* \"#utility.yul\":8026:8119   */\n      tag_94\n      jump\t// in\n    tag_177:\n        /* \"#utility.yul\":8144:8146   */\n      0x20\n        /* \"#utility.yul\":8139:8142   */\n      dup3\n        /* \"#utility.yul\":8135:8147   */\n      add\n        /* \"#utility.yul\":8128:8147   */\n      swap1\n      pop\n        /* \"#utility.yul\":7787:8153   */\n      swap2\n      swap1\n      pop\n      jump\t// out\n        /* \"#utility.yul\":8159:8578   */\n    tag_69:\n        /* \"#utility.yul\":8325:8329   */\n      0x00\n        /* \"#utility.yul\":8363:8365   */\n      0x20\n        /* \"#utility.yul\":8352:8361   */\n      dup3\n        /* \"#utility.yul\":8348:8366   */\n      add\n        /* \"#utility.yul\":8340:8366   */\n      swap1\n      pop\n        /* \"#utility.yul\":8412:8421   */\n      dup2\n        /* \"#utility.yul\":8406:8410   */\n      dup2\n        /* \"#utility.yul\":8402:8422   */\n      sub\n        /* \"#utility.yul\":8398:8399   */\n      0x00\n        /* \"#utility.yul\":8387:8396   */\n      dup4\n        /* \"#utility.yul\":8383:8400   */\n      add\n        /* \"#utility.yul\":8376:8423   */\n      mstore\n        /* \"#utility.yul\":8440:8571   */\n      tag_179\n        /* \"#utility.yul\":8566:8570   */\n      dup2\n        /* \"#utility.yul\":8440:8571   */\n      tag_95\n      jump\t// in\n    tag_179:\n        /* \"#utility.yul\":8432:8571   */\n      swap1\n      pop\n        /* \"#utility.yul\":8159:8578   */\n      swap2\n      swap1\n      pop\n      jump\t// out\n        /* \"#utility.yul\":8584:8818   */\n    tag_96:\n        /* \"#utility.yul\":8724:8758   */\n      0x53636f726520646520637265646974206574206c696d69746520646f6976656e\n        /* \"#utility.yul\":8720:8721   */\n      0x00\n        /* \"#utility.yul\":8712:8718   */\n      dup3\n        /* \"#utility.yul\":8708:8722   */\n      add\n        /* \"#utility.yul\":8701:8759   */\n      mstore\n        /* \"#utility.yul\":8793:8810   */\n      0x74206574726520706f7369746966730000000000000000000000000000000000\n        /* \"#utility.yul\":8788:8790   */\n      0x20\n        /* \"#utility.yul\":8780:8786   */\n      dup3\n        /* \"#utility.yul\":8776:8791   */\n      add\n        /* \"#utility.yul\":8769:8811   */\n      mstore\n        /* \"#utility.yul\":8584:8818   */\n      pop\n      jump\t// out\n        /* \"#utility.yul\":8824:9190   */\n    tag_97:\n        /* \"#utility.yul\":8966:8969   */\n      0x00\n        /* \"#utility.yul\":8987:9054   */\n      tag_182\n        /* \"#utility.yul\":9051:9053   */\n      0x2f\n        /* \"#utility.yul\":9046:9049   */\n      dup4\n        /* \"#utility.yul\":8987:9054   */\n      tag_87\n      jump\t// in\n    tag_182:\n        /* \"#utility.yul\":8980:9054   */\n      swap2\n      pop\n        /* \"#utility.yul\":9063:9156   */\n      tag_183\n        /* \"#utility.yul\":9152:9155   */\n      dup3\n        /* \"#utility.yul\":9063:9156   */\n      tag_96\n      jump\t// in\n    tag_183:\n        /* \"#utility.yul\":9181:9183   */\n      0x40\n        /* \"#utility.yul\":9176:9179   */\n      dup3\n        /* \"#utility.yul\":9172:9184   */\n      add\n        /* \"#utility.yul\":9165:9184   */\n      swap1\n      pop\n        /* \"#utility.yul\":8824:9190   */\n      swap2\n      swap1\n      pop\n      jump\t// out\n        /* \"#utility.yul\":9196:9615   */\n    tag_73:\n        /* \"#utility.yul\":9362:9366   */\n      0x00\n        /* \"#utility.yul\":9400:9402   */\n      0x20\n        /* \"#utility.yul\":9389:9398   */\n      dup3\n        /* \"#utility.yul\":9385:9403   */\n      add\n        /* \"#utility.yul\":9377:9403   */\n      swap1\n      pop\n        /* \"#utility.yul\":9449:9458   */\n      dup2\n        /* \"#utility.yul\":9443:9447   */\n      dup2\n        /* \"#utility.yul\":9439:9459   */\n      sub\n        /* \"#utility.yul\":9435:9436   */\n      0x00\n        /* \"#utility.yul\":9424:9433   */\n      dup4\n        /* \"#utility.yul\":9420:9437   */\n      add\n        /* \"#utility.yul\":9413:9460   */\n      mstore\n        /* \"#utility.yul\":9477:9608   */\n      tag_185\n        /* \"#utility.yul\":9603:9607   */\n      dup2\n        /* \"#utility.yul\":9477:9608   */\n      tag_97\n      jump\t// in\n    tag_185:\n        /* \"#utility.yul\":9469:9608   */\n      swap1\n      pop\n        /* \"#utility.yul\":9196:9615   */\n      swap2\n      swap1\n      pop\n      jump\t// out\n\n    auxdata: 0xa264697066735822122013f09cfad2eb64c43b8f15306b7338d7bb815d5dbf7ce623d2b7e0d4109d7f6364736f6c634300081a0033\n}\n",
				"bytecode": {
					"linkReferences": {},
					"object": "6080604052348015600e575f80fd5b50610fbe8061001c5f395ff3fe608060405234801561000f575f80fd5b5060043610610060575f3560e01c80630aae162e146100645780631922701e146100945780632d83e6b1146100b0578063760b1eee146100e05780638e068eb014610116578063c8cdac5c14610146575b5f80fd5b61007e60048036038101906100799190610af8565b610162565b60405161008b9190610b3b565b60405180910390f35b6100ae60048036038101906100a99190610b7e565b6102eb565b005b6100ca60048036038101906100c59190610af8565b6104ab565b6040516100d79190610b3b565b60405180910390f35b6100fa60048036038101906100f59190610af8565b61062f565b60405161010d9796959493929190610bcb565b60405180910390f35b610130600480360381019061012b9190610af8565b61068b565b60405161013d9190610b3b565b60405180910390f35b610160600480360381019061015b9190610c38565b610824565b005b5f805f808473ffffffffffffffffffffffffffffffffffffffff1673ffffffffffffffffffffffffffffffffffffffff1681526020019081526020015f206040518060e00160405290815f82015f9054906101000a900473ffffffffffffffffffffffffffffffffffffffff1673ffffffffffffffffffffffffffffffffffffffff1673ffffffffffffffffffffffffffffffffffffffff168152602001600182015481526020016002820154815260200160038201548152602001600482015481526020016005820154815260200160068201548152505090505f73ffffffffffffffffffffffffffffffffffffffff16815f015173ffffffffffffffffffffffffffffffffffffffff16036102ae576040517f08c379a00000000000000000000000000000000000000000000000000000000081526004016102a590610d1b565b60405180910390fd5b5f8160600151036102c2575f9150506102e6565b8060600151606482608001516102d89190610d66565b6102e29190610dd4565b9150505b919050565b5f805f8473ffffffffffffffffffffffffffffffffffffffff1673ffffffffffffffffffffffffffffffffffffffff1681526020019081526020015f2090505f73ffffffffffffffffffffffffffffffffffffffff16815f015f9054906101000a900473ffffffffffffffffffffffffffffffffffffffff1673ffffffffffffffffffffffffffffffffffffffff16036103ba576040517f08c379a00000000000000000000000000000000000000000000000000000000081526004016103b190610d1b565b60405180910390fd5b806002015482111561044f578273ffffffffffffffffffffffffffffffffffffffff167f74b737e83b985a0afa446389d70cccab99d200a0a63101114130a2a2dfbba9128360405161040c9190610b3b565b60405180910390a26040517f08c379a000000000000000000000000000000000000000000000000000000000815260040161044690610e74565b60405180910390fd5b8181600301819055508273ffffffffffffffffffffffffffffffffffffffff167fa6b582f9fa77f5eb299250871d3b51c8ff3655dd554da3f9abb294b3e92f8e1f8360405161049e9190610b3b565b60405180910390a2505050565b5f805f808473ffffffffffffffffffffffffffffffffffffffff1673ffffffffffffffffffffffffffffffffffffffff1681526020019081526020015f206040518060e00160405290815f82015f9054906101000a900473ffffffffffffffffffffffffffffffffffffffff1673ffffffffffffffffffffffffffffffffffffffff1673ffffffffffffffffffffffffffffffffffffffff168152602001600182015481526020016002820154815260200160038201548152602001600482015481526020016005820154815260200160068201548152505090505f73ffffffffffffffffffffffffffffffffffffffff16815f015173ffffffffffffffffffffffffffffffffffffffff16036105f7576040517f08c379a00000000000000000000000000000000000000000000000000000000081526004016105ee90610d1b565b60405180910390fd5b6127108160c001518260a0015183606001516106139190610d66565b61061d9190610d66565b6106279190610dd4565b915050919050565b5f602052805f5260405f205f91509050805f015f9054906101000a900473ffffffffffffffffffffffffffffffffffffffff16908060010154908060020154908060030154908060040154908060050154908060060154905087565b5f805f808473ffffffffffffffffffffffffffffffffffffffff1673ffffffffffffffffffffffffffffffffffffffff1681526020019081526020015f206040518060e00160405290815f82015f9054906101000a900473ffffffffffffffffffffffffffffffffffffffff1673ffffffffffffffffffffffffffffffffffffffff1673ffffffffffffffffffffffffffffffffffffffff168152602001600182015481526020016002820154815260200160038201548152602001600482015481526020016005820154815260200160068201548152505090505f73ffffffffffffffffffffffffffffffffffffffff16815f015173ffffffffffffffffffffffffffffffffffffffff16036107d7576040517f08c379a00000000000000000000000000000000000000000000000000000000081526004016107ce90610d1b565b60405180910390fd5b5f8160400151036107eb575f91505061081f565b806020015181604001516107ff9190610d66565b61271082606001516108119190610d66565b61081b9190610dd4565b9150505b919050565b5f73ffffffffffffffffffffffffffffffffffffffff165f808873ffffffffffffffffffffffffffffffffffffffff1673ffffffffffffffffffffffffffffffffffffffff1681526020019081526020015f205f015f9054906101000a900473ffffffffffffffffffffffffffffffffffffffff1673ffffffffffffffffffffffffffffffffffffffff16146108ef576040517f08c379a00000000000000000000000000000000000000000000000000000000081526004016108e690610edc565b60405180910390fd5b5f851180156108fd57505f84115b61093c576040517f08c379a000000000000000000000000000000000000000000000000000000000815260040161093390610f6a565b60405180910390fd5b6040518060e001604052808773ffffffffffffffffffffffffffffffffffffffff1681526020018681526020018581526020015f8152602001828152602001848152602001838152505f808873ffffffffffffffffffffffffffffffffffffffff1673ffffffffffffffffffffffffffffffffffffffff1681526020019081526020015f205f820151815f015f6101000a81548173ffffffffffffffffffffffffffffffffffffffff021916908373ffffffffffffffffffffffffffffffffffffffff1602179055506020820151816001015560408201518160020155606082015181600301556080820151816004015560a0820151816005015560c082015181600601559050508573ffffffffffffffffffffffffffffffffffffffff167f747a12c5b34abe212a3a26b67b9a8edf3ceb6bd68207c9f6c11a5161432e161485604051610a8a9190610b3b565b60405180910390a2505050505050565b5f80fd5b5f73ffffffffffffffffffffffffffffffffffffffff82169050919050565b5f610ac782610a9e565b9050919050565b610ad781610abd565b8114610ae1575f80fd5b50565b5f81359050610af281610ace565b92915050565b5f60208284031215610b0d57610b0c610a9a565b5b5f610b1a84828501610ae4565b91505092915050565b5f819050919050565b610b3581610b23565b82525050565b5f602082019050610b4e5f830184610b2c565b92915050565b610b5d81610b23565b8114610b67575f80fd5b50565b5f81359050610b7881610b54565b92915050565b5f8060408385031215610b9457610b93610a9a565b5b5f610ba185828601610ae4565b9250506020610bb285828601610b6a565b9150509250929050565b610bc581610abd565b82525050565b5f60e082019050610bde5f83018a610bbc565b610beb6020830189610b2c565b610bf86040830188610b2c565b610c056060830187610b2c565b610c126080830186610b2c565b610c1f60a0830185610b2c565b610c2c60c0830184610b2c565b98975050505050505050565b5f805f805f8060c08789031215610c5257610c51610a9a565b5b5f610c5f89828a01610ae4565b9650506020610c7089828a01610b6a565b9550506040610c8189828a01610b6a565b9450506060610c9289828a01610b6a565b9350506080610ca389828a01610b6a565b92505060a0610cb489828a01610b6a565b9150509295509295509295565b5f82825260208201905092915050565b7f436f6e747265706172746965206e6f6e2074726f7576656500000000000000005f82015250565b5f610d05601883610cc1565b9150610d1082610cd1565b602082019050919050565b5f6020820190508181035f830152610d3281610cf9565b9050919050565b7f4e487b71000000000000000000000000000000000000000000000000000000005f52601160045260245ffd5b5f610d7082610b23565b9150610d7b83610b23565b9250828202610d8981610b23565b91508282048414831517610da057610d9f610d39565b5b5092915050565b7f4e487b71000000000000000000000000000000000000000000000000000000005f52601260045260245ffd5b5f610dde82610b23565b9150610de983610b23565b925082610df957610df8610da7565b5b828204905092915050565b7f4578706f736974696f6e2064657061737365206c61206c696d697465206175745f8201527f6f72697365650000000000000000000000000000000000000000000000000000602082015250565b5f610e5e602683610cc1565b9150610e6982610e04565b604082019050919050565b5f6020820190508181035f830152610e8b81610e52565b9050919050565b7f436f6e7472657061727469652064656a6120656e7265676973747265650000005f82015250565b5f610ec6601d83610cc1565b9150610ed182610e92565b602082019050919050565b5f6020820190508181035f830152610ef381610eba565b9050919050565b7f53636f726520646520637265646974206574206c696d69746520646f6976656e5f8201527f74206574726520706f7369746966730000000000000000000000000000000000602082015250565b5f610f54602f83610cc1565b9150610f5f82610efa565b604082019050919050565b5f6020820190508181035f830152610f8181610f48565b905091905056fea264697066735822122013f09cfad2eb64c43b8f15306b7338d7bb815d5dbf7ce623d2b7e0d4109d7f6364736f6c634300081a0033",
					"opcodes": "PUSH1 0x80 PUSH1 0x40 MSTORE CALLVALUE DUP1 ISZERO PUSH1 0xE JUMPI PUSH0 DUP1 REVERT JUMPDEST POP PUSH2 0xFBE DUP1 PUSH2 0x1C PUSH0 CODECOPY PUSH0 RETURN INVALID PUSH1 0x80 PUSH1 0x40 MSTORE CALLVALUE DUP1 ISZERO PUSH2 0xF JUMPI PUSH0 DUP1 REVERT JUMPDEST POP PUSH1 0x4 CALLDATASIZE LT PUSH2 0x60 JUMPI PUSH0 CALLDATALOAD PUSH1 0xE0 SHR DUP1 PUSH4 0xAAE162E EQ PUSH2 0x64 JUMPI DUP1 PUSH4 0x1922701E EQ PUSH2 0x94 JUMPI DUP1 PUSH4 0x2D83E6B1 EQ PUSH2 0xB0 JUMPI DUP1 PUSH4 0x760B1EEE EQ PUSH2 0xE0 JUMPI DUP1 PUSH4 0x8E068EB0 EQ PUSH2 0x116 JUMPI DUP1 PUSH4 0xC8CDAC5C EQ PUSH2 0x146 JUMPI JUMPDEST PUSH0 DUP1 REVERT JUMPDEST PUSH2 0x7E PUSH1 0x4 DUP1 CALLDATASIZE SUB DUP2 ADD SWAP1 PUSH2 0x79 SWAP2 SWAP1 PUSH2 0xAF8 JUMP JUMPDEST PUSH2 0x162 JUMP JUMPDEST PUSH1 0x40 MLOAD PUSH2 0x8B SWAP2 SWAP1 PUSH2 0xB3B JUMP JUMPDEST PUSH1 0x40 MLOAD DUP1 SWAP2 SUB SWAP1 RETURN JUMPDEST PUSH2 0xAE PUSH1 0x4 DUP1 CALLDATASIZE SUB DUP2 ADD SWAP1 PUSH2 0xA9 SWAP2 SWAP1 PUSH2 0xB7E JUMP JUMPDEST PUSH2 0x2EB JUMP JUMPDEST STOP JUMPDEST PUSH2 0xCA PUSH1 0x4 DUP1 CALLDATASIZE SUB DUP2 ADD SWAP1 PUSH2 0xC5 SWAP2 SWAP1 PUSH2 0xAF8 JUMP JUMPDEST PUSH2 0x4AB JUMP JUMPDEST PUSH1 0x40 MLOAD PUSH2 0xD7 SWAP2 SWAP1 PUSH2 0xB3B JUMP JUMPDEST PUSH1 0x40 MLOAD DUP1 SWAP2 SUB SWAP1 RETURN JUMPDEST PUSH2 0xFA PUSH1 0x4 DUP1 CALLDATASIZE SUB DUP2 ADD SWAP1 PUSH2 0xF5 SWAP2 SWAP1 PUSH2 0xAF8 JUMP JUMPDEST PUSH2 0x62F JUMP JUMPDEST PUSH1 0x40 MLOAD PUSH2 0x10D SWAP8 SWAP7 SWAP6 SWAP5 SWAP4 SWAP3 SWAP2 SWAP1 PUSH2 0xBCB JUMP JUMPDEST PUSH1 0x40 MLOAD DUP1 SWAP2 SUB SWAP1 RETURN JUMPDEST PUSH2 0x130 PUSH1 0x4 DUP1 CALLDATASIZE SUB DUP2 ADD SWAP1 PUSH2 0x12B SWAP2 SWAP1 PUSH2 0xAF8 JUMP JUMPDEST PUSH2 0x68B JUMP JUMPDEST PUSH1 0x40 MLOAD PUSH2 0x13D SWAP2 SWAP1 PUSH2 0xB3B JUMP JUMPDEST PUSH1 0x40 MLOAD DUP1 SWAP2 SUB SWAP1 RETURN JUMPDEST PUSH2 0x160 PUSH1 0x4 DUP1 CALLDATASIZE SUB DUP2 ADD SWAP1 PUSH2 0x15B SWAP2 SWAP1 PUSH2 0xC38 JUMP JUMPDEST PUSH2 0x824 JUMP JUMPDEST STOP JUMPDEST PUSH0 DUP1 PUSH0 DUP1 DUP5 PUSH20 0xFFFFFFFFFFFFFFFFFFFFFFFFFFFFFFFFFFFFFFFF AND PUSH20 0xFFFFFFFFFFFFFFFFFFFFFFFFFFFFFFFFFFFFFFFF AND DUP2 MSTORE PUSH1 0x20 ADD SWAP1 DUP2 MSTORE PUSH1 0x20 ADD PUSH0 KECCAK256 PUSH1 0x40 MLOAD DUP1 PUSH1 0xE0 ADD PUSH1 0x40 MSTORE SWAP1 DUP2 PUSH0 DUP3 ADD PUSH0 SWAP1 SLOAD SWAP1 PUSH2 0x100 EXP SWAP1 DIV PUSH20 0xFFFFFFFFFFFFFFFFFFFFFFFFFFFFFFFFFFFFFFFF AND PUSH20 0xFFFFFFFFFFFFFFFFFFFFFFFFFFFFFFFFFFFFFFFF AND PUSH20 0xFFFFFFFFFFFFFFFFFFFFFFFFFFFFFFFFFFFFFFFF AND DUP2 MSTORE PUSH1 0x20 ADD PUSH1 0x1 DUP3 ADD SLOAD DUP2 MSTORE PUSH1 0x20 ADD PUSH1 0x2 DUP3 ADD SLOAD DUP2 MSTORE PUSH1 0x20 ADD PUSH1 0x3 DUP3 ADD SLOAD DUP2 MSTORE PUSH1 0x20 ADD PUSH1 0x4 DUP3 ADD SLOAD DUP2 MSTORE PUSH1 0x20 ADD PUSH1 0x5 DUP3 ADD SLOAD DUP2 MSTORE PUSH1 0x20 ADD PUSH1 0x6 DUP3 ADD SLOAD DUP2 MSTORE POP POP SWAP1 POP PUSH0 PUSH20 0xFFFFFFFFFFFFFFFFFFFFFFFFFFFFFFFFFFFFFFFF AND DUP2 PUSH0 ADD MLOAD PUSH20 0xFFFFFFFFFFFFFFFFFFFFFFFFFFFFFFFFFFFFFFFF AND SUB PUSH2 0x2AE JUMPI PUSH1 0x40 MLOAD PUSH32 0x8C379A000000000000000000000000000000000000000000000000000000000 DUP2 MSTORE PUSH1 0x4 ADD PUSH2 0x2A5 SWAP1 PUSH2 0xD1B JUMP JUMPDEST PUSH1 0x40 MLOAD DUP1 SWAP2 SUB SWAP1 REVERT JUMPDEST PUSH0 DUP2 PUSH1 0x60 ADD MLOAD SUB PUSH2 0x2C2 JUMPI PUSH0 SWAP2 POP POP PUSH2 0x2E6 JUMP JUMPDEST DUP1 PUSH1 0x60 ADD MLOAD PUSH1 0x64 DUP3 PUSH1 0x80 ADD MLOAD PUSH2 0x2D8 SWAP2 SWAP1 PUSH2 0xD66 JUMP JUMPDEST PUSH2 0x2E2 SWAP2 SWAP1 PUSH2 0xDD4 JUMP JUMPDEST SWAP2 POP POP JUMPDEST SWAP2 SWAP1 POP JUMP JUMPDEST PUSH0 DUP1 PUSH0 DUP5 PUSH20 0xFFFFFFFFFFFFFFFFFFFFFFFFFFFFFFFFFFFFFFFF AND PUSH20 0xFFFFFFFFFFFFFFFFFFFFFFFFFFFFFFFFFFFFFFFF AND DUP2 MSTORE PUSH1 0x20 ADD SWAP1 DUP2 MSTORE PUSH1 0x20 ADD PUSH0 KECCAK256 SWAP1 POP PUSH0 PUSH20 0xFFFFFFFFFFFFFFFFFFFFFFFFFFFFFFFFFFFFFFFF AND DUP2 PUSH0 ADD PUSH0 SWAP1 SLOAD SWAP1 PUSH2 0x100 EXP SWAP1 DIV PUSH20 0xFFFFFFFFFFFFFFFFFFFFFFFFFFFFFFFFFFFFFFFF AND PUSH20 0xFFFFFFFFFFFFFFFFFFFFFFFFFFFFFFFFFFFFFFFF AND SUB PUSH2 0x3BA JUMPI PUSH1 0x40 MLOAD PUSH32 0x8C379A000000000000000000000000000000000000000000000000000000000 DUP2 MSTORE PUSH1 0x4 ADD PUSH2 0x3B1 SWAP1 PUSH2 0xD1B JUMP JUMPDEST PUSH1 0x40 MLOAD DUP1 SWAP2 SUB SWAP1 REVERT JUMPDEST DUP1 PUSH1 0x2 ADD SLOAD DUP3 GT ISZERO PUSH2 0x44F JUMPI DUP3 PUSH20 0xFFFFFFFFFFFFFFFFFFFFFFFFFFFFFFFFFFFFFFFF AND PUSH32 0x74B737E83B985A0AFA446389D70CCCAB99D200A0A63101114130A2A2DFBBA912 DUP4 PUSH1 0x40 MLOAD PUSH2 0x40C SWAP2 SWAP1 PUSH2 0xB3B JUMP JUMPDEST PUSH1 0x40 MLOAD DUP1 SWAP2 SUB SWAP1 LOG2 PUSH1 0x40 MLOAD PUSH32 0x8C379A000000000000000000000000000000000000000000000000000000000 DUP2 MSTORE PUSH1 0x4 ADD PUSH2 0x446 SWAP1 PUSH2 0xE74 JUMP JUMPDEST PUSH1 0x40 MLOAD DUP1 SWAP2 SUB SWAP1 REVERT JUMPDEST DUP2 DUP2 PUSH1 0x3 ADD DUP2 SWAP1 SSTORE POP DUP3 PUSH20 0xFFFFFFFFFFFFFFFFFFFFFFFFFFFFFFFFFFFFFFFF AND PUSH32 0xA6B582F9FA77F5EB299250871D3B51C8FF3655DD554DA3F9ABB294B3E92F8E1F DUP4 PUSH1 0x40 MLOAD PUSH2 0x49E SWAP2 SWAP1 PUSH2 0xB3B JUMP JUMPDEST PUSH1 0x40 MLOAD DUP1 SWAP2 SUB SWAP1 LOG2 POP POP POP JUMP JUMPDEST PUSH0 DUP1 PUSH0 DUP1 DUP5 PUSH20 0xFFFFFFFFFFFFFFFFFFFFFFFFFFFFFFFFFFFFFFFF AND PUSH20 0xFFFFFFFFFFFFFFFFFFFFFFFFFFFFFFFFFFFFFFFF AND DUP2 MSTORE PUSH1 0x20 ADD SWAP1 DUP2 MSTORE PUSH1 0x20 ADD PUSH0 KECCAK256 PUSH1 0x40 MLOAD DUP1 PUSH1 0xE0 ADD PUSH1 0x40 MSTORE SWAP1 DUP2 PUSH0 DUP3 ADD PUSH0 SWAP1 SLOAD SWAP1 PUSH2 0x100 EXP SWAP1 DIV PUSH20 0xFFFFFFFFFFFFFFFFFFFFFFFFFFFFFFFFFFFFFFFF AND PUSH20 0xFFFFFFFFFFFFFFFFFFFFFFFFFFFFFFFFFFFFFFFF AND PUSH20 0xFFFFFFFFFFFFFFFFFFFFFFFFFFFFFFFFFFFFFFFF AND DUP2 MSTORE PUSH1 0x20 ADD PUSH1 0x1 DUP3 ADD SLOAD DUP2 MSTORE PUSH1 0x20 ADD PUSH1 0x2 DUP3 ADD SLOAD DUP2 MSTORE PUSH1 0x20 ADD PUSH1 0x3 DUP3 ADD SLOAD DUP2 MSTORE PUSH1 0x20 ADD PUSH1 0x4 DUP3 ADD SLOAD DUP2 MSTORE PUSH1 0x20 ADD PUSH1 0x5 DUP3 ADD SLOAD DUP2 MSTORE PUSH1 0x20 ADD PUSH1 0x6 DUP3 ADD SLOAD DUP2 MSTORE POP POP SWAP1 POP PUSH0 PUSH20 0xFFFFFFFFFFFFFFFFFFFFFFFFFFFFFFFFFFFFFFFF AND DUP2 PUSH0 ADD MLOAD PUSH20 0xFFFFFFFFFFFFFFFFFFFFFFFFFFFFFFFFFFFFFFFF AND SUB PUSH2 0x5F7 JUMPI PUSH1 0x40 MLOAD PUSH32 0x8C379A000000000000000000000000000000000000000000000000000000000 DUP2 MSTORE PUSH1 0x4 ADD PUSH2 0x5EE SWAP1 PUSH2 0xD1B JUMP JUMPDEST PUSH1 0x40 MLOAD DUP1 SWAP2 SUB SWAP1 REVERT JUMPDEST PUSH2 0x2710 DUP2 PUSH1 0xC0 ADD MLOAD DUP3 PUSH1 0xA0 ADD MLOAD DUP4 PUSH1 0x60 ADD MLOAD PUSH2 0x613 SWAP2 SWAP1 PUSH2 0xD66 JUMP JUMPDEST PUSH2 0x61D SWAP2 SWAP1 PUSH2 0xD66 JUMP JUMPDEST PUSH2 0x627 SWAP2 SWAP1 PUSH2 0xDD4 JUMP JUMPDEST SWAP2 POP POP SWAP2 SWAP1 POP JUMP JUMPDEST PUSH0 PUSH1 0x20 MSTORE DUP1 PUSH0 MSTORE PUSH1 0x40 PUSH0 KECCAK256 PUSH0 SWAP2 POP SWAP1 POP DUP1 PUSH0 ADD PUSH0 SWAP1 SLOAD SWAP1 PUSH2 0x100 EXP SWAP1 DIV PUSH20 0xFFFFFFFFFFFFFFFFFFFFFFFFFFFFFFFFFFFFFFFF AND SWAP1 DUP1 PUSH1 0x1 ADD SLOAD SWAP1 DUP1 PUSH1 0x2 ADD SLOAD SWAP1 DUP1 PUSH1 0x3 ADD SLOAD SWAP1 DUP1 PUSH1 0x4 ADD SLOAD SWAP1 DUP1 PUSH1 0x5 ADD SLOAD SWAP1 DUP1 PUSH1 0x6 ADD SLOAD SWAP1 POP DUP8 JUMP JUMPDEST PUSH0 DUP1 PUSH0 DUP1 DUP5 PUSH20 0xFFFFFFFFFFFFFFFFFFFFFFFFFFFFFFFFFFFFFFFF AND PUSH20 0xFFFFFFFFFFFFFFFFFFFFFFFFFFFFFFFFFFFFFFFF AND DUP2 MSTORE PUSH1 0x20 ADD SWAP1 DUP2 MSTORE PUSH1 0x20 ADD PUSH0 KECCAK256 PUSH1 0x40 MLOAD DUP1 PUSH1 0xE0 ADD PUSH1 0x40 MSTORE SWAP1 DUP2 PUSH0 DUP3 ADD PUSH0 SWAP1 SLOAD SWAP1 PUSH2 0x100 EXP SWAP1 DIV PUSH20 0xFFFFFFFFFFFFFFFFFFFFFFFFFFFFFFFFFFFFFFFF AND PUSH20 0xFFFFFFFFFFFFFFFFFFFFFFFFFFFFFFFFFFFFFFFF AND PUSH20 0xFFFFFFFFFFFFFFFFFFFFFFFFFFFFFFFFFFFFFFFF AND DUP2 MSTORE PUSH1 0x20 ADD PUSH1 0x1 DUP3 ADD SLOAD DUP2 MSTORE PUSH1 0x20 ADD PUSH1 0x2 DUP3 ADD SLOAD DUP2 MSTORE PUSH1 0x20 ADD PUSH1 0x3 DUP3 ADD SLOAD DUP2 MSTORE PUSH1 0x20 ADD PUSH1 0x4 DUP3 ADD SLOAD DUP2 MSTORE PUSH1 0x20 ADD PUSH1 0x5 DUP3 ADD SLOAD DUP2 MSTORE PUSH1 0x20 ADD PUSH1 0x6 DUP3 ADD SLOAD DUP2 MSTORE POP POP SWAP1 POP PUSH0 PUSH20 0xFFFFFFFFFFFFFFFFFFFFFFFFFFFFFFFFFFFFFFFF AND DUP2 PUSH0 ADD MLOAD PUSH20 0xFFFFFFFFFFFFFFFFFFFFFFFFFFFFFFFFFFFFFFFF AND SUB PUSH2 0x7D7 JUMPI PUSH1 0x40 MLOAD PUSH32 0x8C379A000000000000000000000000000000000000000000000000000000000 DUP2 MSTORE PUSH1 0x4 ADD PUSH2 0x7CE SWAP1 PUSH2 0xD1B JUMP JUMPDEST PUSH1 0x40 MLOAD DUP1 SWAP2 SUB SWAP1 REVERT JUMPDEST PUSH0 DUP2 PUSH1 0x40 ADD MLOAD SUB PUSH2 0x7EB JUMPI PUSH0 SWAP2 POP POP PUSH2 0x81F JUMP JUMPDEST DUP1 PUSH1 0x20 ADD MLOAD DUP2 PUSH1 0x40 ADD MLOAD PUSH2 0x7FF SWAP2 SWAP1 PUSH2 0xD66 JUMP JUMPDEST PUSH2 0x2710 DUP3 PUSH1 0x60 ADD MLOAD PUSH2 0x811 SWAP2 SWAP1 PUSH2 0xD66 JUMP JUMPDEST PUSH2 0x81B SWAP2 SWAP1 PUSH2 0xDD4 JUMP JUMPDEST SWAP2 POP POP JUMPDEST SWAP2 SWAP1 POP JUMP JUMPDEST PUSH0 PUSH20 0xFFFFFFFFFFFFFFFFFFFFFFFFFFFFFFFFFFFFFFFF AND PUSH0 DUP1 DUP9 PUSH20 0xFFFFFFFFFFFFFFFFFFFFFFFFFFFFFFFFFFFFFFFF AND PUSH20 0xFFFFFFFFFFFFFFFFFFFFFFFFFFFFFFFFFFFFFFFF AND DUP2 MSTORE PUSH1 0x20 ADD SWAP1 DUP2 MSTORE PUSH1 0x20 ADD PUSH0 KECCAK256 PUSH0 ADD PUSH0 SWAP1 SLOAD SWAP1 PUSH2 0x100 EXP SWAP1 DIV PUSH20 0xFFFFFFFFFFFFFFFFFFFFFFFFFFFFFFFFFFFFFFFF AND PUSH20 0xFFFFFFFFFFFFFFFFFFFFFFFFFFFFFFFFFFFFFFFF AND EQ PUSH2 0x8EF JUMPI PUSH1 0x40 MLOAD PUSH32 0x8C379A000000000000000000000000000000000000000000000000000000000 DUP2 MSTORE PUSH1 0x4 ADD PUSH2 0x8E6 SWAP1 PUSH2 0xEDC JUMP JUMPDEST PUSH1 0x40 MLOAD DUP1 SWAP2 SUB SWAP1 REVERT JUMPDEST PUSH0 DUP6 GT DUP1 ISZERO PUSH2 0x8FD JUMPI POP PUSH0 DUP5 GT JUMPDEST PUSH2 0x93C JUMPI PUSH1 0x40 MLOAD PUSH32 0x8C379A000000000000000000000000000000000000000000000000000000000 DUP2 MSTORE PUSH1 0x4 ADD PUSH2 0x933 SWAP1 PUSH2 0xF6A JUMP JUMPDEST PUSH1 0x40 MLOAD DUP1 SWAP2 SUB SWAP1 REVERT JUMPDEST PUSH1 0x40 MLOAD DUP1 PUSH1 0xE0 ADD PUSH1 0x40 MSTORE DUP1 DUP8 PUSH20 0xFFFFFFFFFFFFFFFFFFFFFFFFFFFFFFFFFFFFFFFF AND DUP2 MSTORE PUSH1 0x20 ADD DUP7 DUP2 MSTORE PUSH1 0x20 ADD DUP6 DUP2 MSTORE PUSH1 0x20 ADD PUSH0 DUP2 MSTORE PUSH1 0x20 ADD DUP3 DUP2 MSTORE PUSH1 0x20 ADD DUP5 DUP2 MSTORE PUSH1 0x20 ADD DUP4 DUP2 MSTORE POP PUSH0 DUP1 DUP9 PUSH20 0xFFFFFFFFFFFFFFFFFFFFFFFFFFFFFFFFFFFFFFFF AND PUSH20 0xFFFFFFFFFFFFFFFFFFFFFFFFFFFFFFFFFFFFFFFF AND DUP2 MSTORE PUSH1 0x20 ADD SWAP1 DUP2 MSTORE PUSH1 0x20 ADD PUSH0 KECCAK256 PUSH0 DUP3 ADD MLOAD DUP2 PUSH0 ADD PUSH0 PUSH2 0x100 EXP DUP2 SLOAD DUP2 PUSH20 0xFFFFFFFFFFFFFFFFFFFFFFFFFFFFFFFFFFFFFFFF MUL NOT AND SWAP1 DUP4 PUSH20 0xFFFFFFFFFFFFFFFFFFFFFFFFFFFFFFFFFFFFFFFF AND MUL OR SWAP1 SSTORE POP PUSH1 0x20 DUP3 ADD MLOAD DUP2 PUSH1 0x1 ADD SSTORE PUSH1 0x40 DUP3 ADD MLOAD DUP2 PUSH1 0x2 ADD SSTORE PUSH1 0x60 DUP3 ADD MLOAD DUP2 PUSH1 0x3 ADD SSTORE PUSH1 0x80 DUP3 ADD MLOAD DUP2 PUSH1 0x4 ADD SSTORE PUSH1 0xA0 DUP3 ADD MLOAD DUP2 PUSH1 0x5 ADD SSTORE PUSH1 0xC0 DUP3 ADD MLOAD DUP2 PUSH1 0x6 ADD SSTORE SWAP1 POP POP DUP6 PUSH20 0xFFFFFFFFFFFFFFFFFFFFFFFFFFFFFFFFFFFFFFFF AND PUSH32 0x747A12C5B34ABE212A3A26B67B9A8EDF3CEB6BD68207C9F6C11A5161432E1614 DUP6 PUSH1 0x40 MLOAD PUSH2 0xA8A SWAP2 SWAP1 PUSH2 0xB3B JUMP JUMPDEST PUSH1 0x40 MLOAD DUP1 SWAP2 SUB SWAP1 LOG2 POP POP POP POP POP POP JUMP JUMPDEST PUSH0 DUP1 REVERT JUMPDEST PUSH0 PUSH20 0xFFFFFFFFFFFFFFFFFFFFFFFFFFFFFFFFFFFFFFFF DUP3 AND SWAP1 POP SWAP2 SWAP1 POP JUMP JUMPDEST PUSH0 PUSH2 0xAC7 DUP3 PUSH2 0xA9E JUMP JUMPDEST SWAP1 POP SWAP2 SWAP1 POP JUMP JUMPDEST PUSH2 0xAD7 DUP2 PUSH2 0xABD JUMP JUMPDEST DUP2 EQ PUSH2 0xAE1 JUMPI PUSH0 DUP1 REVERT JUMPDEST POP JUMP JUMPDEST PUSH0 DUP2 CALLDATALOAD SWAP1 POP PUSH2 0xAF2 DUP2 PUSH2 0xACE JUMP JUMPDEST SWAP3 SWAP2 POP POP JUMP JUMPDEST PUSH0 PUSH1 0x20 DUP3 DUP5 SUB SLT ISZERO PUSH2 0xB0D JUMPI PUSH2 0xB0C PUSH2 0xA9A JUMP JUMPDEST JUMPDEST PUSH0 PUSH2 0xB1A DUP5 DUP3 DUP6 ADD PUSH2 0xAE4 JUMP JUMPDEST SWAP2 POP POP SWAP3 SWAP2 POP POP JUMP JUMPDEST PUSH0 DUP2 SWAP1 POP SWAP2 SWAP1 POP JUMP JUMPDEST PUSH2 0xB35 DUP2 PUSH2 0xB23 JUMP JUMPDEST DUP3 MSTORE POP POP JUMP JUMPDEST PUSH0 PUSH1 0x20 DUP3 ADD SWAP1 POP PUSH2 0xB4E PUSH0 DUP4 ADD DUP5 PUSH2 0xB2C JUMP JUMPDEST SWAP3 SWAP2 POP POP JUMP JUMPDEST PUSH2 0xB5D DUP2 PUSH2 0xB23 JUMP JUMPDEST DUP2 EQ PUSH2 0xB67 JUMPI PUSH0 DUP1 REVERT JUMPDEST POP JUMP JUMPDEST PUSH0 DUP2 CALLDATALOAD SWAP1 POP PUSH2 0xB78 DUP2 PUSH2 0xB54 JUMP JUMPDEST SWAP3 SWAP2 POP POP JUMP JUMPDEST PUSH0 DUP1 PUSH1 0x40 DUP4 DUP6 SUB SLT ISZERO PUSH2 0xB94 JUMPI PUSH2 0xB93 PUSH2 0xA9A JUMP JUMPDEST JUMPDEST PUSH0 PUSH2 0xBA1 DUP6 DUP3 DUP7 ADD PUSH2 0xAE4 JUMP JUMPDEST SWAP3 POP POP PUSH1 0x20 PUSH2 0xBB2 DUP6 DUP3 DUP7 ADD PUSH2 0xB6A JUMP JUMPDEST SWAP2 POP POP SWAP3 POP SWAP3 SWAP1 POP JUMP JUMPDEST PUSH2 0xBC5 DUP2 PUSH2 0xABD JUMP JUMPDEST DUP3 MSTORE POP POP JUMP JUMPDEST PUSH0 PUSH1 0xE0 DUP3 ADD SWAP1 POP PUSH2 0xBDE PUSH0 DUP4 ADD DUP11 PUSH2 0xBBC JUMP JUMPDEST PUSH2 0xBEB PUSH1 0x20 DUP4 ADD DUP10 PUSH2 0xB2C JUMP JUMPDEST PUSH2 0xBF8 PUSH1 0x40 DUP4 ADD DUP9 PUSH2 0xB2C JUMP JUMPDEST PUSH2 0xC05 PUSH1 0x60 DUP4 ADD DUP8 PUSH2 0xB2C JUMP JUMPDEST PUSH2 0xC12 PUSH1 0x80 DUP4 ADD DUP7 PUSH2 0xB2C JUMP JUMPDEST PUSH2 0xC1F PUSH1 0xA0 DUP4 ADD DUP6 PUSH2 0xB2C JUMP JUMPDEST PUSH2 0xC2C PUSH1 0xC0 DUP4 ADD DUP5 PUSH2 0xB2C JUMP JUMPDEST SWAP9 SWAP8 POP POP POP POP POP POP POP POP JUMP JUMPDEST PUSH0 DUP1 PUSH0 DUP1 PUSH0 DUP1 PUSH1 0xC0 DUP8 DUP10 SUB SLT ISZERO PUSH2 0xC52 JUMPI PUSH2 0xC51 PUSH2 0xA9A JUMP JUMPDEST JUMPDEST PUSH0 PUSH2 0xC5F DUP10 DUP3 DUP11 ADD PUSH2 0xAE4 JUMP JUMPDEST SWAP7 POP POP PUSH1 0x20 PUSH2 0xC70 DUP10 DUP3 DUP11 ADD PUSH2 0xB6A JUMP JUMPDEST SWAP6 POP POP PUSH1 0x40 PUSH2 0xC81 DUP10 DUP3 DUP11 ADD PUSH2 0xB6A JUMP JUMPDEST SWAP5 POP POP PUSH1 0x60 PUSH2 0xC92 DUP10 DUP3 DUP11 ADD PUSH2 0xB6A JUMP JUMPDEST SWAP4 POP POP PUSH1 0x80 PUSH2 0xCA3 DUP10 DUP3 DUP11 ADD PUSH2 0xB6A JUMP JUMPDEST SWAP3 POP POP PUSH1 0xA0 PUSH2 0xCB4 DUP10 DUP3 DUP11 ADD PUSH2 0xB6A JUMP JUMPDEST SWAP2 POP POP SWAP3 SWAP6 POP SWAP3 SWAP6 POP SWAP3 SWAP6 JUMP JUMPDEST PUSH0 DUP3 DUP3 MSTORE PUSH1 0x20 DUP3 ADD SWAP1 POP SWAP3 SWAP2 POP POP JUMP JUMPDEST PUSH32 0x436F6E747265706172746965206E6F6E2074726F757665650000000000000000 PUSH0 DUP3 ADD MSTORE POP JUMP JUMPDEST PUSH0 PUSH2 0xD05 PUSH1 0x18 DUP4 PUSH2 0xCC1 JUMP JUMPDEST SWAP2 POP PUSH2 0xD10 DUP3 PUSH2 0xCD1 JUMP JUMPDEST PUSH1 0x20 DUP3 ADD SWAP1 POP SWAP2 SWAP1 POP JUMP JUMPDEST PUSH0 PUSH1 0x20 DUP3 ADD SWAP1 POP DUP2 DUP2 SUB PUSH0 DUP4 ADD MSTORE PUSH2 0xD32 DUP2 PUSH2 0xCF9 JUMP JUMPDEST SWAP1 POP SWAP2 SWAP1 POP JUMP JUMPDEST PUSH32 0x4E487B7100000000000000000000000000000000000000000000000000000000 PUSH0 MSTORE PUSH1 0x11 PUSH1 0x4 MSTORE PUSH1 0x24 PUSH0 REVERT JUMPDEST PUSH0 PUSH2 0xD70 DUP3 PUSH2 0xB23 JUMP JUMPDEST SWAP2 POP PUSH2 0xD7B DUP4 PUSH2 0xB23 JUMP JUMPDEST SWAP3 POP DUP3 DUP3 MUL PUSH2 0xD89 DUP2 PUSH2 0xB23 JUMP JUMPDEST SWAP2 POP DUP3 DUP3 DIV DUP5 EQ DUP4 ISZERO OR PUSH2 0xDA0 JUMPI PUSH2 0xD9F PUSH2 0xD39 JUMP JUMPDEST JUMPDEST POP SWAP3 SWAP2 POP POP JUMP JUMPDEST PUSH32 0x4E487B7100000000000000000000000000000000000000000000000000000000 PUSH0 MSTORE PUSH1 0x12 PUSH1 0x4 MSTORE PUSH1 0x24 PUSH0 REVERT JUMPDEST PUSH0 PUSH2 0xDDE DUP3 PUSH2 0xB23 JUMP JUMPDEST SWAP2 POP PUSH2 0xDE9 DUP4 PUSH2 0xB23 JUMP JUMPDEST SWAP3 POP DUP3 PUSH2 0xDF9 JUMPI PUSH2 0xDF8 PUSH2 0xDA7 JUMP JUMPDEST JUMPDEST DUP3 DUP3 DIV SWAP1 POP SWAP3 SWAP2 POP POP JUMP JUMPDEST PUSH32 0x4578706F736974696F6E2064657061737365206C61206C696D69746520617574 PUSH0 DUP3 ADD MSTORE PUSH32 0x6F72697365650000000000000000000000000000000000000000000000000000 PUSH1 0x20 DUP3 ADD MSTORE POP JUMP JUMPDEST PUSH0 PUSH2 0xE5E PUSH1 0x26 DUP4 PUSH2 0xCC1 JUMP JUMPDEST SWAP2 POP PUSH2 0xE69 DUP3 PUSH2 0xE04 JUMP JUMPDEST PUSH1 0x40 DUP3 ADD SWAP1 POP SWAP2 SWAP1 POP JUMP JUMPDEST PUSH0 PUSH1 0x20 DUP3 ADD SWAP1 POP DUP2 DUP2 SUB PUSH0 DUP4 ADD MSTORE PUSH2 0xE8B DUP2 PUSH2 0xE52 JUMP JUMPDEST SWAP1 POP SWAP2 SWAP1 POP JUMP JUMPDEST PUSH32 0x436F6E7472657061727469652064656A6120656E726567697374726565000000 PUSH0 DUP3 ADD MSTORE POP JUMP JUMPDEST PUSH0 PUSH2 0xEC6 PUSH1 0x1D DUP4 PUSH2 0xCC1 JUMP JUMPDEST SWAP2 POP PUSH2 0xED1 DUP3 PUSH2 0xE92 JUMP JUMPDEST PUSH1 0x20 DUP3 ADD SWAP1 POP SWAP2 SWAP1 POP JUMP JUMPDEST PUSH0 PUSH1 0x20 DUP3 ADD SWAP1 POP DUP2 DUP2 SUB PUSH0 DUP4 ADD MSTORE PUSH2 0xEF3 DUP2 PUSH2 0xEBA JUMP JUMPDEST SWAP1 POP SWAP2 SWAP1 POP JUMP JUMPDEST PUSH32 0x53636F726520646520637265646974206574206C696D69746520646F6976656E PUSH0 DUP3 ADD MSTORE PUSH32 0x74206574726520706F7369746966730000000000000000000000000000000000 PUSH1 0x20 DUP3 ADD MSTORE POP JUMP JUMPDEST PUSH0 PUSH2 0xF54 PUSH1 0x2F DUP4 PUSH2 0xCC1 JUMP JUMPDEST SWAP2 POP PUSH2 0xF5F DUP3 PUSH2 0xEFA JUMP JUMPDEST PUSH1 0x40 DUP3 ADD SWAP1 POP SWAP2 SWAP1 POP JUMP JUMPDEST PUSH0 PUSH1 0x20 DUP3 ADD SWAP1 POP DUP2 DUP2 SUB PUSH0 DUP4 ADD MSTORE PUSH2 0xF81 DUP2 PUSH2 0xF48 JUMP JUMPDEST SWAP1 POP SWAP2 SWAP1 POP JUMP INVALID LOG2 PUSH5 0x6970667358 0x22 SLT KECCAK256 SGT CREATE SWAP13 STATICCALL 0xD2 0xEB PUSH5 0xC43B8F1530 PUSH12 0x7338D7BB815D5DBF7CE623D2 0xB7 0xE0 0xD4 LT SWAP14 PUSH32 0x6364736F6C634300081A00330000000000000000000000000000000000000000 "
				},
				"gasEstimates": {
					"creation": {
						"codeDepositCost": "806000",
						"executionCost": "836",
						"totalCost": "806836"
					},
					"external": {
						"ajouterContrepartie(address,uint256,uint256,uint256,uint256,uint256)": "infinite",
						"calculerPertesAttendues(address)": "infinite",
						"calculerRatioCouverture(address)": "infinite",
						"calculerRisque(address)": "infinite",
						"contreparties(address)": "infinite",
						"mettreAJourExposition(address,uint256)": "infinite"
					}
				},
				"methodIdentifiers": {
					"ajouterContrepartie(address,uint256,uint256,uint256,uint256,uint256)": "c8cdac5c",
					"calculerPertesAttendues(address)": "2d83e6b1",
					"calculerRatioCouverture(address)": "0aae162e",
					"calculerRisque(address)": "8e068eb0",
					"contreparties(address)": "760b1eee",
					"mettreAJourExposition(address,uint256)": "1922701e"
				}
			},
			"storageLayout": {
				"storage": [
					{
						"astId": 21,
						"contract": "GestionRisqueContrepartie.sol:GestionRisqueContrepartie",
						"label": "contreparties",
						"offset": 0,
						"slot": "0",
						"type": "t_mapping(t_address,t_struct(Contrepartie)16_storage)"
					}
				],
				"types": {
					"t_address": {
						"encoding": "inplace",
						"label": "address",
						"numberOfBytes": "20"
					},
					"t_mapping(t_address,t_struct(Contrepartie)16_storage)": {
						"encoding": "mapping",
						"key": "t_address",
						"label": "mapping(address => struct GestionRisqueContrepartie.Contrepartie)",
						"numberOfBytes": "32",
						"value": "t_struct(Contrepartie)16_storage"
					},
					"t_struct(Contrepartie)16_storage": {
						"encoding": "inplace",
						"label": "struct GestionRisqueContrepartie.Contrepartie",
						"members": [
							{
								"astId": 3,
								"contract": "GestionRisqueContrepartie.sol:GestionRisqueContrepartie",
								"label": "portefeuille",
								"offset": 0,
								"slot": "0",
								"type": "t_address"
							},
							{
								"astId": 5,
								"contract": "GestionRisqueContrepartie.sol:GestionRisqueContrepartie",
								"label": "scoreCredit",
								"offset": 0,
								"slot": "1",
								"type": "t_uint256"
							},
							{
								"astId": 7,
								"contract": "GestionRisqueContrepartie.sol:GestionRisqueContrepartie",
								"label": "limiteExposition",
								"offset": 0,
								"slot": "2",
								"type": "t_uint256"
							},
							{
								"astId": 9,
								"contract": "GestionRisqueContrepartie.sol:GestionRisqueContrepartie",
								"label": "expositionCourante",
								"offset": 0,
								"slot": "3",
								"type": "t_uint256"
							},
							{
								"astId": 11,
								"contract": "GestionRisqueContrepartie.sol:GestionRisqueContrepartie",
								"label": "collaterale",
								"offset": 0,
								"slot": "4",
								"type": "t_uint256"
							},
							{
								"astId": 13,
								"contract": "GestionRisqueContrepartie.sol:GestionRisqueContrepartie",
								"label": "probabiliteDefaut",
								"offset": 0,
								"slot": "5",
								"type": "t_uint256"
							},
							{
								"astId": 15,
								"contract": "GestionRisqueContrepartie.sol:GestionRisqueContrepartie",
								"label": "pertesEnCasDeDefaut",
								"offset": 0,
								"slot": "6",
								"type": "t_uint256"
							}
						],
						"numberOfBytes": "224"
					},
					"t_uint256": {
						"encoding": "inplace",
						"label": "uint256",
						"numberOfBytes": "32"
					}
				}
			},
			"userdoc": {
				"kind": "user",
				"methods": {},
				"version": 1
			}
		}
	}
}